:100000000C94DC040C9404050C9404050C94040575
:100010000C9404050C9404050C9404050C9404053C
:100020000C9404050C9404050C94EF100C946111CD
:100030000C9404050C9404050C9404050C9404051C
:100040000C9404050C9404050C9404050C9404050C
:100050000C9404050C9404050C9404050C944C07B2
:100060000C9404050C9404050C9404050C940405EC
:100070000C9404050C9404050C9404050C940405DC
:100080000C9404050C9404050C9404050C940405CC
:100090000C9404050C9404050C9404050C940405BC
:1000A0000C9404050C9404050C94040579067C0654
:1000B0006B066F0673069D069D069D0680068406E8
:1000C00088068E0692069D069806F0F89C8E878319
:1000D000878E9CF8F00000FEFF0303030303070E66
:1000E000FCF80000FEFF0303030303070EFCF80007
:1000F00000FFFF00000000000000FFFF0000FEFF07
:100100008383838383C7EE7C380000F8FC0E0703EB
:100110000303070EFCF800003F7FE0C08080C0E0D2
:100120007F3FFFFF01010101010101FFFF0000FF0F
:10013000FF0C0C0C0C1C3E77E3C100007FFFC0C01D
:10014000C0C0C0E0703F1F00001F3F70E0C0C0C0D3
:10015000E0703F1F00007FFFC1C1C1C1C1E3773E16
:100160001C00001F3F70E0C0C0C0E0703F1F0000D7
:1001700000000001FFFF010000000000000024005B
:1001800027002A002D003000D5F08D14A1C881CFA2
:10019000D9F1AF2000040802011040804010204037
:1001A000804080080204018040201002011080106D
:1001B0002040402000000000250028002B002E00D9
:1001C00031000404040404030405020202020403CF
:1001D00002020202060606060606040402020204E1
:1001E000041402130212021502070208020A020A8C
:1001F000010B020B010902090104010C01060100B7
:10020000003C424242423C000000182424180000F6
:100210000000183C3C180000000000000000000036
:100220000090AABC80808080BEA498808080809846
:10023000A4A48080808098A4BE808080809CAA8CAA
:100240008080808088BC8A80808080A4AA948080FE
:100250008080BE88B08000000000003E000000FEEC
:10026000414040404040FF404040404040FF40400F
:1002700040404040FF404040404040FF4040404000
:100280004040FF404040404040FF404040404040F0
:10029000FF404040404041FE00009995120000FFA1
:1002A000202020202020FF202020202020FF202090
:1002B00020202020FF202020202020FF2020202080
:1002C0002020FF202020202020FF20202020202070
:1002D000FF202020202020FF0000880AC50000FF0A
:1002E000101010101010FF101010101010FF101030
:1002F00010101010FF101010101010FF1010101020
:100300001010FF101010101010FF1010101010100F
:10031000FF101010101010FF0000E3A2270000FFD4
:10032000080808080808FF080808080808FF08085F
:1003300008080808FF080808080808FF080808084F
:100340000808FF080808080808FF0808080808083F
:10035000FF080808080808FF0000E252810000FFBB
:10036000040404040404FF040404040404FF040457
:1003700004040404FF040404040404FF0404040447
:100380000404FF040404040404FF04040404040437
:10039000FF040404040404FF000008E9180000FF3F
:1003A000020202020202FF020202020202FF020233
:1003B00002020202FF020202020202FF0202020223
:1003C0000202FF020202020202FF02020202020213
:1003D000FF020202020202FF000028542800003F30
:1003E000418181818181FF818181818181FF818141
:1003F00081818181FF818181818181FF81818181F1
:100400008181FF818181818181FF818181818181E0
:10041000FF8181818181413F00000000003E5B4FF0
:100420005B3E3E6B4F6B3E1C3E7C3E1C183C7E3C54
:10043000181C577D571C1C5E7F5E1C00183C180062
:10044000FFE7C3E7FF0018241800FFE7DBE7FF30F2
:10045000483A060E2629792926407F050507407F60
:1004600005253F5A3CE73C5A7F3E1C1C08081C1CD3
:100470003E7F14227F22145F5F005F5F06097F01C9
:100480007F006689956A606060606094A2FFA294B4
:1004900008047E040810207E201008082A1C080882
:1004A0001C2A08081E101010100C1E0C1E0C3038D0
:1004B0003E3830060E3E0E06000000000000005FD1
:1004C00000000007000700147F147F14242A7F2AED
:1004D00012231308646236495620500008070300AF
:1004E000001C2241000041221C002A1C7F1C2A08FB
:1004F000083E08080080703000080808080800005E
:1005000060600020100804023E5149453E00427FD1
:10051000400072494949462141494D331814127F20
:100520001027454545393C4A4949314121110907C0
:100530003649494936464949291E00001400000041
:100540004034000000081422411414141414004113
:1005500022140802015909063E415D594E7C1211D0
:10056000127C7F494949363E414141227F41414108
:100570003E7F494949417F090909013E4141517383
:100580007F0808087F00417F41002040413F017FF4
:10059000081422417F404040407F021C027F7F04BC
:1005A00008107F3E4141413E7F090909063E415105
:1005B000215E7F09192946264949493203017F01F5
:1005C000033F4040403F1F2040201F3F4038403FF6
:1005D000631408146303047804036159494D43000C
:1005E0007F4141410204081020004141417F040243
:1005F00001020440404040400003070800205454DA
:1006000078407F28444438384444442838444428B7
:100610007F385454541800087E090218A4A49C780A
:100620007F0804047800447D40002040403D007F66
:100630001028440000417F40007C047804787C0846
:100640000404783844444438FC182424181824241A
:1006500018FC7C08040408485454542404043F44FF
:10066000243C4040207C1C2040201C3C4030403C2E
:1006700044281028444C9090907C4464544C44008E
:1006800008364100000077000000413608000201F2
:100690000204023C2623263C1EA1A161123A4040DE
:1006A000207A38545455592155557941215454785C
:1006B00041215554784020545579400C1E527212F5
:1006C000395555555939545454593955545458007D
:1006D00000457C410002457D420001457C40F029F7
:1006E0002429F0F0282528F07C5455450020545446
:1006F0007C547C0A097F493249494932324848488A
:1007000032324A4848303A4141217A3A42402078D0
:10071000009DA0A07D39444444393D4040403D3CCB
:1007200024FF2424487E4943662B2FFC2F2BFF09EE
:1007300029F620C0887E09032054547941000044E2
:100740007D413048484A32384040227A007A0A0ACD
:10075000727D0D19317D2629292F28262929292640
:1007600030484D4020380808080808080808382F85
:1007700010C8ACBA2F102834FA00007B000008140F
:100780002A142222142A14089500220095AA005542
:1007900000AAAA55AA55AA000000FF00101010FFD9
:1007A00000141414FF001010FF00FF1010F010F0E0
:1007B000141414FC001414F700FF0000FF00FF14D1
:1007C00014F404FC141417101F10101F101F14141D
:1007D000141F00101010F0000000001F1010101067
:1007E0001F10101010F010000000FF10101010105B
:1007F00010101010FF10000000FF140000FF00FF99
:1008000000001F10170000FC04F414141710171434
:1008100014F404F40000FF00F71414141414141456
:10082000F700F7141414171410101F101F141414C9
:10083000F4141010F010F000001F101F0000001F33
:1008400014000000FC140000F010F01010FF10FF66
:10085000141414FF141010101F00000000F010FFFB
:10086000FFFFFFFFF0F0F0F0F0FFFFFF00000000DF
:1008700000FFFF0F0F0F0F0F38444438447C2A2A23
:100880003E147E02020606027E027E026355494144
:10089000633844443C04407E201E2006027E02024F
:1008A00099A5E7A5991C2A492A1C4C7201724C3063
:1008B0004A4D4D303048784830BC625A463D3E493A
:1008C0004949007E0101017E2A2A2A2A2A44445FDE
:1008D000444440514A444040444A51400000FF01D2
:1008E00003E080FF000008086B6B083612362436E0
:1008F000060F090F06000018180000001010003045
:1009000040FF0101001F01011E00191D1712003CCC
:100910003C3C3C00000000000000000200090F0009
:1009200000030401000C00000000000000000000B3
:1009300000000000000000080B0002020201000994
:10094000040000010202000005240010010524013A
:100950000101042402060524060001070581031095
:10096000004009040100020A0000000705020240DD
:10097000000007058302400000040309044172647B
:1009800075696E6F204C4C430041726475626F79DB
:1009900000120100020000004041233680000101E6
:1009A00002030112010002EF0201404123368000E0
:1009B000010102030100F81A11241FBECFEFDAE093
:1009C000DEBFCDBF26E0A0E8B1E001C01D92A13797
:1009D000B207E1F711E0A0E0B1E0EAE8FCE302C011
:1009E00005900D92A038B107D9F714E0CCEDD4E012
:1009F00004C02197FE010E94071DCB3DD107C9F716
:100A00000E949E130C94431E0C940000CF92DF9220
:100A1000EF92FF920F931F93CF93DF936C017A01B4
:100A20008B01C0E0D0E0CE15DF0589F0D8016D91D3
:100A30008D01D601ED91FC910190F081E02DC60170
:100A40000995892B11F47E0102C02196ECCFC701D4
:100A5000DF91CF911F910F91FF90EF90DF90CF909A
:100A600008952F923F924F925F926F927F928F9252
:100A70009F92AF92BF92CF92DF92EF92FF920F932D
:100A80001F93CF93DF9300D000D000D0CDB7DEB757
:100A9000DC016A30A9F45A962C915A9756968D919A
:100AA0009C91579708E0209F800D911D1124579627
:100AB0009C938E93569755961C921E925497D1C034
:100AC0006D3009F4CEC05A96BC905A9759962C9026
:100AD000599758963C90589756962D913C91579718
:100AE0003C832B8354968D919C915597803891052A
:100AF000C4F05A962C915A97422F50E054968D91FB
:100B00009C91559736E0239F800D911D1124559699
:100B10009C938E9354975B962C915B9721118EC07A
:100B2000A0C00B811C81003411051CF79C0115E04D
:100B3000B19E200D311D112412161306D4F68B2CF4
:100B4000912C2B813C8148E0B49E200D311D112455
:100B50001216130674F6E5E06E9F2001112460E082
:100B600070E06530710539F0FB01E40DF51DE85EBC
:100B7000FB4FA49001C0A12CEB80FC8008E0702EFC
:100B8000A0FC02C0622C01C0632C611009C02310BC
:100B900007C0A6947A94E80CF91C7110F1CF45C0F7
:100BA0009C01422F481B4B15A0F7A701E42FF42FFF
:100BB000FE19FB15B8F52038310588F5403451058C
:100BC00070F5E695E695E695CE2ED12C8A01077054
:100BD00011271A830983F601F695FE2FEE27F79564
:100BE000E795E20FF31F8F010A561E4F1E830D83F8
:100BF000E1E0F0E0098002C0EE0FFF1F0A94E2F787
:100C0000FA83E983662029F0F801D080C980CD28D5
:100C100005C0CE2EC094F801D080CD20C0824F5F99
:100C20005F4FC4CF2F5F3F4FBCCF6F5F7F4F880DAB
:100C3000991D6630710509F094CF5BCF6AEF6403AC
:100C40009001659F300D112420583F4F2817390718
:100C500044F4CD01ED91FC910190F081E02D6AE02A
:100C6000099581E090E026960FB6F894DEBF0FBE9E
:100C7000CDBFDF91CF911F910F91FF90EF90DF904B
:100C8000CF90BF90AF909F908F907F906F905F902C
:100C90004F903F902F9008950E940D1D362F90E0A9
:100CA000FC01E85EF64F4491FC01EB56FE4F2491A7
:100CB000FC01EE53FE4F8491882309F451C0442374
:100CC000E1F150E0FA013197EF30F105B0F5EA5A61
:100CD000FF4F0C94071D909180009F7707C0909163
:100CE00080009F7D03C090918000977F909380004B
:100CF00024C094B59F7702C094B59F7D94BD1DC05C
:100D0000909190009F7707C0909190009F7D03C0C5
:100D100090919000977F909390000FC09091C000A9
:100D20009F7703C09091C0009F7D9093C00005C045
:100D30009091C200977F9093C200E82FF0E0EE0FF1
:100D4000FF1FEC54FE4FA591B4918FB7F894EC912E
:100D5000311103C020952E2301C02E2B2C938FBF61
:100D60000895CF93DF9390E0FC01EB56FE4F249162
:100D7000FC01EE53FE4F8491882361F190E0880FCF
:100D8000991FFC01E658FE4FC591D491FC01EC542B
:100D9000FE4FA591B491611109C09FB7F894888165
:100DA000209582238883EC912E230BC0623061F45E
:100DB0009FB7F8943881822F809583238883EC91A4
:100DC0002E2B2C939FBF06C08FB7F894E8812E2B53
:100DD00028838FBFDF91CF9108953FB7F89480911A
:100DE0008E0190918F01A0919001B091910126B553
:100DF000A89B05C02F3F19F00196A11DB11D3FBF53
:100E0000BA2FA92F982F8827820F911DA11DB11DE0
:100E1000BC01CD0142E0660F771F881F991F4A95DC
:100E2000D1F708958F929F92AF92BF92CF92DF92A7
:100E3000EF92FF926B017C010E94ED064B015C0179
:100E4000C114D104E104F104F1F00E94ED06DC01CB
:100E5000CB0188199909AA09BB09883E9340A105CD
:100E6000B10570F321E0C21AD108E108F10888EE5B
:100E7000880E83E0981EA11CB11CC114D104E104AA
:100E8000F10419F7DDCFFF90EF90DF90CF90BF9086
:100E9000AF909F908F9008951F920F920FB60F9270
:100EA00011242F933F938F939F93AF93BF93809180
:100EB000860190918701A0918801B09189013091BC
:100EC0008D0123E0230F2D3720F40196A11DB11DC4
:100ED00005C026E8230F0296A11DB11D20938D01A8
:100EE0008093860190938701A0938801B093890134
:100EF00080918E0190918F01A0919001B09191010C
:100F00000196A11DB11D80938E0190938F01A09336
:100F10009001B0939101BF91AF919F918F913F91BB
:100F20002F910F900FBE0F901F9018958FB12CB17D
:100F300093B130E02095309520743327A90123E048
:100F4000559547952A95E1F7292F30E02095309562
:100F5000207133273595279535952795242B809536
:100F6000807F822B08951F93CF93DF931F92CDB77D
:100F7000DEB7162F682F8AE049830E944E06612F44
:100F80008BE00E944E064981642F89E00F90DF912B
:100F9000CF911F910C944E0683B7817F83BF83B797
:100FA000816083BF889583B78E7F83BF0895E0916A
:100FB0008401F0918501908180918301892B808348
:100FC000E0918101F0918201908180918001809572
:100FD00089238083E0918401F09185019081809143
:100FE00083018095892380830895E0918101F091A8
:100FF0008201908180918001892B8083E09184011E
:10100000F09185019081809183018095892380836F
:1010100008958EBD00000DB407FEFDCF8EB5089576
:101020000F931F93CF93DF931F92CDB7DEB7182F87
:10103000062F61E089E049830E944E0668EC70E06B
:1010400080E090E00E94120760E0802F0E944E0630
:1010500082E090E00E94CA1D4981481729F0642F60
:1010600082E090E00E94D21D64EF71E080E090E0A9
:101070000E94120761E0802F0E944E060E94960790
:1010800081238117D9F30F90DF91CF911F910F9199
:1010900008958091C50586FD06C00E949607982F89
:1010A000907486FD0AC08091C50586FD0AC00E9425
:1010B0009607982F907285FF04C08091C5058064C3
:1010C00017C08091C50587FD06C00E949607982F1E
:1010D0009078903851F08091C50587FD0CC00E9432
:1010E0009607982F907184FF06C08091C50580688F
:1010F0008093C50555C08091C50586FF08C00E9434
:101100009607807621F48091C5058F7B19C0809168
:10111000C50587FF04C00E949607807971F0809111
:10112000C60580FD10C00E949607982F987083FF17
:101130000AC08091C60581602FC08091C5058F7758
:101140008093C505ECCF8091C60581FD06C00E9445
:101150009607982F947082FD0EC08091C60580FF7F
:101160000EC00E949607982F987083FD08C080914A
:10117000C6058E7F11C08091C60582600DC080912A
:10118000C60581FF0CC00E949607982F947082FDBF
:1011900006C08091C6058D7F8093C60501C090E092
:1011A000892F0895883018F481E0683008F080E0D5
:1011B0000895FC012081FB013081FC013083FB019B
:1011C00020830895FC01E40FF11D208130E0062EFC
:1011D00002C0359527950A94E2F720FF0CC0808560
:1011E00090E002C0959587956A95E2F780FF06C06A
:1011F00082E090E0089580E090E0089581E090E042
:101200000895CF92DF92EF92FF920F93CF93DF93E7
:1012100000E420E448E152E060E070E080E090E02B
:101220000E94850E97E0C92ED12CD0E087E0E82EF1
:10123000F12CC0E04C2F6D2F81ED95E00E94E2086B
:101240008130910529F408E028E040E152E006C031
:10125000029741F408E028E048E052E0B701C601F7
:101260000E94850ECF5F27E0E20EF11CC83011F717
:10127000DF5F87E0C80ED11CD830C1F680918A01AB
:101280008F3028F18091D005982F9C719430F9F41B
:10129000982F917086958170981319C08091C5051B
:1012A000682F6695669566956770877097E0699F69
:1012B000B0011124695F7F4F27E0829FC001112494
:1012C00008E028E040E052E007960E94850E08E022
:1012D00028E048E052E068E070E087E590E00E9496
:1012E000850EC0E6D0E0D093BE05C093BD0588E072
:1012F00090E09093C0058093BF056091C7056F7320
:1013000070E080E090E04AE00E94440E28E040E176
:1013100052E060E170E087E590E00E94850ED09396
:10132000BE05C093BD0580E190E09093C005809319
:10133000BF056091C6056695669570E080E090E017
:101340004AE00E94440EC6E4D0E0D093BE05C093AC
:10135000BD0580E290E09093C0058093BF0587E7CC
:1013600091E00E94210ED093BE05C093BD0588E296
:1013700090E09093C0058093BF056091C80570917F
:10138000C9058091CA059091CB054AE00E94440EA0
:10139000D093BE05C093BD0580E390E09093C00557
:1013A0008093BF058BE791E00E94210ED093BE058C
:1013B000C093BD0588E390E09093C0058093BF057E
:1013C0006091CC057091CD058091CE059091CF05AF
:1013D0004AE0DF91CF910F91FF90EF90DF90CF9097
:1013E0000C94440E2F923F924F925F926F927F9295
:1013F0008F929F92AF92BF92CF92DF92EF92FF9225
:101400000F931F93CF93DF93CDB7DEB729970FB616
:10141000F894DEBF0FBECDBF7C016B01342E222EAF
:101420000C83422F632D0E94E208892B09F052C0E1
:1014300021E02B8332E0C316D10409F01B8281E046
:10144000C816D10421F492E0A92EB12C03C02B813F
:10145000A22EB12C1A821FEF232D30E03F832E8362
:10146000422C512C88248394912C66246A94212F39
:10147000220D2D83611002C0112319F1762C730CFB
:101480002D811982072D2987622F872D28870E9499
:10149000D20828858823A9F0422F672DC7010E9412
:1014A000E2082885892B69F0398131111EC0422F4D
:1014B000672DC70128870E94E20828858C159D05A5
:1014C00059F4639482E06812D5CF1F5F123069F639
:1014D0008A815FC080E05DC08A159B0519F0760C9B
:1014E000210FD0CF31E03983FACF39813130B9F7CC
:1014F000422F672DC70128870E94E20828858C1596
:101500009D0569F73A813F5F3A832C812223C9F216
:10151000802F002E000C990B2E813F81821793079C
:1015200081F106193985311B3987E32FF0E0C114A9
:10153000D10469F4EE0DFF1DC401002E01C0880F17
:101540000A94EAF78095908189238083E1CFC401D2
:10155000002E01C0880F0A94EAF7EE0DFF1D3081BE
:10156000382B3083A1E0CA16D10421F480959085F0
:10157000892305C02B81222359F29085892B8087EE
:10158000C7CF3985832F330F990B8415950549F6FD
:1015900098CF29960FB6F894DEBF0FBECDBFDF916E
:1015A000CF911F910F91FF90EF90DF90CF90BF9060
:1015B000AF909F908F907F906F905F904F903F90F3
:1015C0002F900895CF92DF92EF92FF920F931F9387
:1015D000CF93DF936B017C01CB010E94CA1DC82F02
:1015E000C60101960E94CA1DD82FC60102960E940C
:1015F000CA1D082FC60103960E94CA1D4D2F50E038
:1016000060E070E0762F652F542F442710E020E033
:1016100030E0980111270027400F511F621F731FF0
:101620004C0F511D611D711D90E0A0E0B0E0B82F7E
:10163000AA27992788278A019B01080F191F2A1FAB
:101640003B1FC901B801DF91CF911F910F91FF900E
:10165000EF90DF90CF900895CF92DF92EF92FF92BC
:10166000CF93DF93EC016A017B01642F0E94D21DAE
:1016700099278F2D7E2D6D2DCE0101960E94D21DB2
:10168000B70188279927CE0102960E94D21D6F2D9F
:10169000772788279927CE010396DF91CF91FF9076
:1016A000EF90DF90CF900C94D21DCF93DF931F92D9
:1016B000CDB7DEB76983DC01ED91FC910280F38147
:1016C000E02D41E050E0BE016F5F7F4F09950F9024
:1016D000DF91CF91089583E08093E9008091F2003B
:1016E000882319F08AE38093E8000895EF92FF922F
:1016F0000F93CF93DF937C01D0E0C0E000E02C2F6C
:101700004D2FB70181ED95E00E94F209811108C0CB
:10171000CF5FC83099F7DF5FD83079F780E001C03C
:1017200081E0DF91CF910F91FF90EF9008950097A6
:1017300069F0FC0101900020E9F73197AF01481BE7
:10174000590BBC0189EA95E00C94060580E090E015
:1017500008958F929F92AF92BF92CF92DF92EF92B5
:10176000FF920F931F93CF93DF935C016B018A016C
:1017700080910701882309F45EC080919501882338
:1017800009F459C08091930180FF05C08091E00069
:1017900082608093E000E8018AEFF82E93E0E92E62
:1017A0002FE3822E3AE3932E209709F43DC08FB7A2
:1017B000F894E092E9009091E80095FF06C09091BE
:1017C000F200282D291B922F01C090E08FBF9111AC
:1017D0000AC0FA94FF2079F161E070E080E090E0C7
:1017E0000E941207E1CF292F30E0C217D3070CF473
:1017F0009C2F8FB7F894E092E9002091E80025FF34
:1018000011C0292F30E0C21BD30BF601915020F0FC
:1018100041914093F100FACFC20ED31E9091E8009F
:1018200095FF13C08FBFC0CF5D9884E6809392016F
:101830001016110644F081E090E0F5019383828355
:1018400080E090E005C0C80103C09092E800EACFB4
:10185000DF91CF911F910F91FF90EF90DF90CF908C
:10186000BF90AF909F908F900895E1EDF5E0838554
:10187000877F938198619383806183878485948136
:10188000986194838F7E88608487CF010895CF9379
:10189000DF93C5ECD5E04B815C816D817E818CEB63
:1018A00092E00E942C0B4F81588569857A8584ECE3
:1018B00092E0DF91CF910C942C0B2F923F924F929C
:1018C0005F926F927F928F929F92AF92BF92CF92D0
:1018D000DF92EF92FF920F931F93CF93DF93CDB7D9
:1018E000DEB767970FB6F894DEBF0FBECDBF9F8BF4
:1018F0008E8B462E542E390180E1E1EDF5E0DE01BC
:10190000119601900D928A95E1F78091D00581FFA3
:1019100003C062E070E002C061E070E001E0252DEC
:10192000442DCE0101960E94F209882309F41BC1BF
:101930008091D00581FF04C042E0E42EF12C03C069
:10194000EE24E394F12C00E010E0C12CD12CF8013E
:10195000E35EF94F6081462F469546954695477060
:101960006770CE0101960E94E2088E159F0519F45A
:1019700025E0C20ED11C0F5F1F4F0430110539F74F
:10198000860120E030E0442D50E0A52DB0E0F901C3
:10199000EF51FA4F8081682F677070E06417750708
:1019A00061F4869586958695877090E08A179B07E7
:1019B00021F486010A50110905C02F5F3F4F2430E2
:1019C000310529F720E030E0652D70E0F901E75E90
:1019D000F94F8081E82FE770F0E0E417F50759F43C
:1019E000869586958695877090E08617970719F4F7
:1019F0000C591F4F05C02F5F3F4F2430310531F781
:101A0000442039F087E0481621F0552011F0581293
:101A100098C091E080E0E2E0EE16F10409F090E079
:101A2000F1E0EF16F10421F422E0A22EB12C02C065
:101A3000A92EB82E21E0E216F10419F0C92ED82EF5
:101A400003C082E0C82ED12C212C1B8A1C8A1D8A3F
:101A50001A8A198A312C812C912C511010C040E027
:101A6000692DCE0101960E94E2088E159F0511F4A2
:101A700083941BC08C159D05C1F4339416C087E078
:101A8000581213C047E0692DCE0101960E94E2086A
:101A90008E159F0521F429892F5F298B06C08A1591
:101AA0009B0519F42A892F5F2A8B411014C0492DF8
:101AB00060E0CE0101960E94E2088E159F0521F498
:101AC0002D892F5F2D8B1BC08C159D05C1F42C8992
:101AD0002F5F2C8B14C087E0481211C0492D67E09E
:101AE000CE0101960E94E2088E159F0521F42B89F4
:101AF0002F5F2B8B04C08C159D0509F423949394C0
:101B000088E09812AACFE1E08E1204C0311002C022
:101B1000045F1F4F2989213029F42A89211102C02D
:101B2000045F1F4F2D89213029F42C89211102C017
:101B3000045F1F4F2B89213021F4211002C0045F64
:101B40001F4FF301808191818017910764F480E138
:101B5000FE013196AE89BF8901900D928A95E1F719
:101B6000F3011183008367960FB6F894DEBF0FBEB2
:101B7000CDBFDF91CF911F910F91FF90EF90DF903C
:101B8000CF90BF90AF909F908F907F906F905F901D
:101B90004F903F902F9008950F931F93CF93DF9313
:101BA00000E0D0E0C0E010E0412F602F81ED95E033
:101BB0000E94E2088130910511F4DF5F03C00297B3
:101BC00009F4CF5F1F5F183079F70F5F083059F7BE
:101BD000DD0FDD0F8091C6058370D82BD093C6052D
:101BE000CF738091C705807CC82BC093C7058091B7
:101BF000D00581FD03C082E090E002C081E090E06A
:101C00000E94760B9091D005882359F091FB2227F2
:101C100020F981E0822780FB91F99093D00580E044
:101C20000BC091FF03C082E090E002C081E090E031
:101C30000E94760B91E08927DF91CF911F910F9140
:101C400008950C94970B809196018EBDE7E9F1E021
:101C500081910DB407FEFDCF8EBD85E0E639F80712
:101C6000B9F70DB407FEFDCF089520E086E991E0B5
:101C7000B22FB111BFEFFC010024B193B193B19326
:101C8000B1930394D1F708958F929F92AF92BF9230
:101C90000F931F93CF93DF93CDB7DEB7A1970FB606
:101CA000F894DEBF0FBECDBF19A2423008F44AE05F
:101CB0008E010F5D1F4F842E912CA12CB12CA501FC
:101CC00094010E94121EE62FB901CA0101501109A8
:101CD000EA3014F4E05D01C0E95CD801EC93232BF9
:101CE000242B252B61F7C8010E94970BA1960FB6F4
:101CF000F894DEBF0FBECDBFDF91CF911F910F9142
:101D0000BF90AF909F908F9008952F923F924F92E7
:101D10005F926F927F928F929F92AF92BF92CF927B
:101D2000DF92EF92FF920F931F93CF93DF93CDB784
:101D3000DEB728970FB6F894DEBF0FBECDBF5A01AD
:101D4000822E912C9C01280D391D37FDC4C080388E
:101D500091050CF0C0C09B01200F311D37FDBBC0A9
:101D6000603471050CF0B7C0AB0177FF04C04427A5
:101D70005527461B570B477055279B0177FF02C01D
:101D8000295F3F4FE3E035952795EA95E1F777FF27
:101D900008C02150310968E070E0DB01A41BB50BDD
:101DA000AD01602F66956695669570E0077011F03D
:101DB0006F5F7F4FDB01A20FB31FBA83A983390185
:101DC0007694762C662477946794680E791EE12CBD
:101DD000F12C00E010E02301B0E84B0E511C68E04C
:101DE00070E0DB01A41BB50BBC83AB8369817A81F6
:101DF0002617370709F46FC02830310509F46BC086
:101E00002F3FBFEF3B070CF45BC0B201600F711FA7
:101E1000DB01AA56BE4FBE83AD83D801A60DB71D08
:101E2000AA56BE4F6C0160E070E0681579050CF0B1
:101E300047C0E0E8CE16D10409F442C0D7FC34C054
:101E40002F3FFFEF3F0709F442C0FB01EE0DFF1DDE
:101E5000EA0DFB1DE491042E01C0EE0F0A94EAF78F
:101E60003C90E329EC9341155105F1F02730310501
:101E7000D9F0FB01EE0DFF1DEA0DFB1DE4912E2EA6
:101E8000312CF1010B8002C0F595E7950A94E2F739
:101E9000F887EF83ED81FE813080EF81F885E329BB
:101EA0001F01ED81FE8120826F5F7F4FED81FE81FA
:101EB0003196FE83ED83FFEFCF1ADF0A1196B5CF7F
:101EC0002F5F3F4F00581F4FE80CF91C8FCF411573
:101ED000510579F6E9CF28960FB6F894DEBF0FBE0C
:101EE000CDBFDF91CF911F910F91FF90EF90DF90C9
:101EF000CF90BF90AF909F908F907F906F905F90AA
:101F00004F903F902F900895FC0180919501811191
:101F100003C08FEF9FEF08959FB7F89482E08093FE
:101F2000E9002091F20030E01216130614F421E0CB
:101F300030E02115310559F0289884E6809394010A
:101F40008091F10080838091F200882319F09FBF77
:101F5000C90108958BE68093E800F9CF80919A0536
:101F600081110DC082E08093960584E080939705EF
:101F7000109299051092980581E080939A0586E960
:101F800095E00895FC018485958597FD0BC09FB76A
:101F9000F89482E08093E9008091F2009FBF90E086
:101FA000019608959FB7F89482E08093E9008091AC
:101FB000F2009FBF90E008954091A7055091A805B9
:101FC0002091A5053091A60542175307B4F49091CE
:101FD000E8009570E1F39091E80092FD19C08093BC
:101FE000F1008091A7059091A80501968F7399271C
:101FF000892B19F48EEF8093E8008091A7059091CA
:10200000A80501969093A8058093A70581E00895FF
:1020100080E00895CF92DF92EF92FF920F931F938B
:10202000CF93DF931F92CDB7DEB7182F062FE42E84
:10203000862F880F8E5F99830E94DC0F83E00E94B9
:10204000DC0FF12EC12E9981D92E8C2D8F1980177E
:1020500098F4F601E7FE02C0849101C080810E94DD
:10206000DC0F182F80E00E94DC0F8123FFEFCF1AD6
:10207000DF0A8111EACF01C081E00F90DF91CF919B
:102080001F910F91FF90EF90DF90CF900895DF9216
:10209000EF92FF920F931F93CF93DF93D82E8A0175
:1020A0007B01E40EF51EEB01CE15DF0571F0D7FEC6
:1020B00003C0FE01849101C088810E94DC0F21963B
:1020C0008111F2CF8FEF9FEF01C0C801DF91CF9157
:1020D0001F910F91FF90EF90DF900895615030F0C5
:1020E0002091F100FC0120830196F8CF289884E626
:1020F0008093940108950F931F93CF93DF931F92C2
:10210000CDB7DEB78C01FC018485958597FF0EC0A5
:10211000CE0101960E94840F019719F4298130E0C5
:1021200002C02FEF3FEFF80135872487F80184853F
:1021300095850F90DF91CF911F910F910895CF93C7
:10214000DF931F92CDB7DEB7FC018485958597FD9F
:1021500005C02FEF3FEF358724870BC0CE010196D6
:102160000E94840F019719F4898190E002C08FEFDB
:102170009FEF0F90DF91CF9108950F931F93CF930F
:10218000DF931F92CDB7DEB782E0898342E450E04F
:1021900067E379E080E80E9447100E94AE0FDC01FF
:1021A00012960D911C9113970115110569F0D80134
:1021B000ED91FC910280F381E02DBE016F5F7F4FB6
:1021C000C801099597FF07C089810F90DF91CF91D2
:1021D0001F910F910895F80100851185E5CF1F9299
:1021E0000F920FB60F9211248F939F938091E1006D
:1021F0009091E100937F9093E10083FF0FC01092D4
:10220000E90091E09093EB001092EC0092E3909340
:10221000ED001092950198E09093F00082FF20C0AD
:1022200093E09093E9009091F200992319F09AE3DA
:102230009093E80090919201992339F09091920146
:10224000915090939201992389F19091940199234F
:1022500039F090919401915090939401992341F118
:1022600084FF10C08091E2008E7E81608093E20046
:102270008091E1008F7E8093E100809193018E7EBA
:10228000806111C080FF16C08091E2008E7E806167
:102290008093E2008091E1008E7E8093E100809146
:1022A00093018E7E81608093930104C05D9ACDCFAF
:1022B000289AD6CF9F918F910F900FBE0F901F90AD
:1022C00018951F920F920FB60F921124CF92DF92A2
:1022D000EF92FF920F931F932F933F934F935F9330
:1022E0006F937F938F939F93AF93BF93EF93FF93DE
:1022F000CF93DF93CDB7DEB76C97DEBFCDBF109223
:10230000E9008091E80083FFFAC168E0CE014596BC
:102310000E946E1082EF8093E8008D8987FF05C0D0
:102320009091E80090FFFCCF03C09EEF9093E800EF
:10233000982F907609F0C6C09E892F89188D91112B
:102340000CC0803829F48091A3058093F10002C06D
:102350001092F1001092F10047C1422F50E0512B32
:10236000913051F4811140C14130510509F03CC117
:102370008091A3058D7F0BC0933061F4811134C12E
:102380004130510509F030C18091A30582608093EE
:10239000A3052AC1953041F48091E80080FFFCCF6D
:1023A00020682093E30020C1963009F05FC0EB8CD9
:1023B000FC8C1092E9001092A8051092A70512302B
:1023C00091F51092A6051092A5050E94BD1099E006
:1023D000BE016F5F7F4FDB01E92F1D92EA95E9F7A0
:1023E00099831A8391E09E8390EA98879AEF998760
:1023F0002091A7053091A805275F3F4F3C832B8391
:102400008D831092E9001092A8051092A705F09212
:10241000A605E092A50549E050E080E00E94471043
:102420000E94BD10E1C0F092A605E092A5050E94B1
:10243000AE0FDC011296ED90FC901397E114F104BD
:1024400009F4C0C0D701ED91FC910480F581E02D25
:10245000BE016B5E7F4FC7010995009719F00CF024
:10246000C3C0C6C0F701E084F184E8CF973009F417
:10247000BFC0983021F481E08093F100B5C099305D
:1024800009F0B2C0837009F0B3C0E5E1F1E081E08A
:1024900021E036E39081992361F08093E900209355
:1024A000EB0091919093EC003093ED008F5F8730BB
:1024B00089F78EE78093EA001092EA008F89809373
:1024C000950192C08B8D9C8D1092E9001092A80509
:1024D0001092A7059093A6058093A505898D81117B
:1024E00056C08E899D89913A59F4813209F080C095
:1024F00047E050E060E071E080E00E94471074C067
:10250000913209F075C0833289F4888D90E0982F5C
:1025100088272F89822BA0E0B0E080930801909358
:102520000901A0930A01B0930B015EC0803269F4E7
:102530008091E80082FFFCCF67E080E091E00E949C
:102540006E108BEF8093E80006C0823209F04CC019
:102550008F89809307018091A205882319F0EEEFFF
:10256000FAE002C0E0E0F8E0809100019091010102
:10257000A0910201B0910301803B9440A105B105F7
:1025800009F088C08091070180FFA0C083C00E942D
:10259000AE0FDC0112960D911C91139701151105D8
:1025A00039F1D801ED91FC910190F081E02DBE014F
:1025B0006B5E7F4FC8010995811116C0F801008537
:1025C0001185ECCF1130C1F0133091F48F8988233D
:1025D00009F455C08230E9F440E867E089E899E001
:1025E0000E940A10882321F08EEF8093E80087C0B4
:1025F00081E28093EB0083C08B8D9C8D089711F452
:102600001093A4058091A405811136C061E979E099
:1026100038C0813029F440E86BE08DE799E0E0CFE5
:10262000833031F70E94AE0FDC011296ED90FC90E2
:1026300013978E010F5F1F4F6801E114F10479F0C9
:10264000D701ED91FC910680F781E02DB801C7011B
:102650000995080F111DF701E084F184EECFD80130
:102660001C92F60101900020E9F73197BF016C1927
:102670007D0940E0C601B4CF63EA79E002C069E7B2
:1026800079E06115710509F4B3CFFB01449150E085
:1026900080E833CF0FB6F894A895809160008861E8
:1026A00080936000109260000FBEA895EE3F2AE074
:1026B000F20739F08091FE0A9091FF0A918380839E
:1026C00093CF1092FF0A1092FE0A8ECFEE3F8AE05F
:1026D000F80731F0808191819093FF0A8093FE0A80
:1026E00087E797E7918380839BE088E10FB6F894B2
:1026F000A895809360000FBE9093600075CF6C9694
:102700000FB6F894DEBF0FBECDBFDF91CF91FF9122
:10271000EF91BF91AF919F918F917F916F915F9159
:102720004F913F912F911F910F91FF90EF90DF906C
:10273000CF900F900FBE0F901F901895CF93DF93FF
:10274000CDB7DEB765970FB6F894DEBF0FBECDBF2D
:10275000789484B5826084BD84B5816084BD85B57C
:10276000826085BD85B5816085BD80916E00816088
:1027700080936E001092810080918100826080932E
:102780008100809181008160809381008091800030
:10279000816080938000809191008260809391009D
:1027A0008091910081608093910080919000816080
:1027B000809390008091C10084608093C1008091DB
:1027C000C10082608093C1008091C10081608093CC
:1027D000C1008091C30081608093C3008091C000DC
:1027E00082608093C0008091C20081608093C200AB
:1027F00080917A00846080937A0080917A00826070
:1028000080937A0080917A00816080937A00809131
:102810007A00806880937A00109295011092A30547
:10282000109293018091D70081608093D70080EA55
:102830008093D80089B5806189BD89B5826089BDE2
:1028400009B400FEFDCF61E070E080E090E00E94FE
:1028500012078091D8008F7C80618093D80080918E
:10286000E000807F8093E0008091E1008E7E809385
:10287000E1008DE08093E200559A209AEEEFFFE7A9
:10288000859194918B3F9C4D19F481E08093A20532
:102890001FB7F89480918C01811127C0E3EDF1E01E
:1028A0008491E6EAF1E09491E82FF0E0EE0FFF1F4B
:1028B000E658FE4FA591B491EC91E92321F461E033
:1028C00081E10E944E0661E081E10E94B1068CB573
:1028D00080618CBD8CB580648CBD61E08FE00E940E
:1028E000B10661E080E10E94B10680918C018F5FAA
:1028F00080938C011FBF01EE11E0F80184910E5FFF
:102900001F4F31966491882319F00E94B106F5CFCC
:1029100061E086E00E944E0661E070E080E090E0B9
:102920000E94120760E086E00E944E066AE070E0B6
:1029300080E090E00E94120761E086E00E944E066F
:10294000EEECF1E0E491F0E0EE0FFF1FEC54FE4FEF
:10295000859194919093850180938401E1EAF1E05F
:10296000E491E0938301E6ECF1E0E491F0E0EE0F16
:10297000FF1FEC54FE4F85919491909382018093B8
:102980008101E9E9F1E0E491E09380018CB58C7F6D
:102990008CBD8DB581608DBD0E94D70708E811E020
:1029A0008DE0F82EF00EF80184910E9409080F5F67
:1029B0001F4FF012F8CF0E94F507809164008160EC
:1029C00080936400809164008260809364008091B1
:1029D00064008068809364008091640080648093C8
:1029E00064008091650081608093650000E014E0E0
:1029F00080E00E94090801501109D1F70E94960752
:102A000087FF3CC00E94D70785EA0E9409080E9400
:102A1000F50740E060E080E00E94B3070E9496075F
:102A200084FD03C00E94CC07F9CF41E061E081E062
:102A30000E94B3070E94D70784EA0E9409080E94F7
:102A4000F5071CC060E089E00E944E060E949607D0
:102A50008478843821F44FEF6BE00E9410080E94C4
:102A600096078471843121F440E06AE00E941008E6
:102A700068EC70E080E090E00E9412070E949607E8
:102A800082FDE0CF61E089E00E944E0660E08AE0CE
:102A90000E944E06EEEEEE2EFF24FA941E2D1C3FF1
:102AA00019F441E060E004C0183129F440E061E02D
:102AB00081E00E94B3070E94350E00E128E54AEC50
:102AC00050E0B70184E190E00E94850E0E94230E41
:102AD0006BE170E080E090E00E941207103F31F45B
:102AE0006AEF70E080E090E00E941207FFEFEF1ABB
:102AF000FF0A29E1E216F10489F66EEE72E080E049
:102B000090E00E94120761E089E00E944E0682E098
:102B100090E00E94CA1D882359F061E085E00E9480
:102B2000B10661E08DE00E94B10681E080938B01E7
:102B3000809164008E7F8093640087EC80937C009A
:102B400080E280937B0062E070E080E090E00E9491
:102B5000120780917A00806480937A0080917A00D5
:102B600086FDFCCF009178001091790000951095BA
:102B70008EE580937C0062E070E080E090E00E944F
:102B8000120780917A00806480937A0080917A00A5
:102B900086FDFCCFE0907800F09079000E94ED0671
:102BA0009B01AC012095309540955095E094F094B0
:102BB000E09ED001E19EB00DF09EB00D11240E9468
:102BC000FF1D6B017C010E94ED066C0D7D1D8E1DAD
:102BD0009F1D611571058105910511F00E94C11DB0
:102BE0008091640081608093640081E28093B205EB
:102BF00008EF1FEF76E1E72EF12C0E94350EF092E0
:102C0000BE05E092BD051093C0050093BF0583E3A8
:102C100091E00E94210E64E170E080E090E00E946B
:102C200012070E94230E0E5F1F4F0C31110529F76A
:102C300068EE73E080E090E00E9412070E94350C7D
:102C400048E1B42E5CE0C52ED12C68E1E62EF12CD3
:102C50000E945E1D8C010E945E1DB8016370772783
:102C6000675E794F83709927875E994F0E94D908D4
:102C70000E945E1D8C010E945E1DFC01C801B60110
:102C80000E94F31C9C01235F394FCF01B6010E94C3
:102C9000F31CB901835F994F0E94D9080E945E1D01
:102CA0008C010E945E1DFC01C801B7010E94F31C4B
:102CB0009C012B503A4FCF01B7010E94F31CB90180
:102CC0008B509A4F0E94D9080E945E1D8C010E9471
:102CD0005E1DB8016770772763517A4F8770992717
:102CE00083519A4F0E94D9080E945E1D8C010E9458
:102CF0005E1DB801677077276B517A4F87709927EF
:102D00008B519A4F0E94D9080E945E1D8C010E942F
:102D10005E1D03701127B8016F517A4F8370992798
:102D20008F519A4F0E94D908BA94B11091CF6CEB91
:102D300072E080E090E00E94E20A6B017C01609307
:102D4000C8057093C9058093CA059093CB0564ECC0
:102D500072E080E090E00E94E20A6093CC057093FC
:102D6000CD058093CE059093CF05CF20CE20CD20EA
:102D7000C09429F06F3F7F4F8F4F9F4F91F4109277
:102D8000C8051092C9051092CA051092CB05109281
:102D9000CC051092CD051092CE051092CF050E9461
:102DA000470C81ED95E0F8E0F80FFB8B9E012F5F5B
:102DB0003F4F790138E03E0D3C8B2FB7F89480915E
:102DC000860190918701A0918801B09189012FBF60
:102DD0002091BB05222391F02091B305682F621B3F
:102DE0006093BC052091B0053091B1052F5F3F4F36
:102DF0003093B1052093B0051092BB054091B70503
:102E00005091B8056091B9057091BA05841795077E
:102E1000A607B70738F4481B423008F49FC30E9446
:102E2000CC079CC32091B205AC01BD01420F511DDE
:102E3000611D711D4093B7055093B8056093B905A6
:102E40007093BA058093B3059093B405A093B5052C
:102E5000B093B60581E08093BB0580918A018F5FB6
:102E60008E3118F480938A0102C010928A010E9468
:102E7000350E1092C0051092BF051092BE0510923B
:102E8000BD052091D005822F86958695877090E0AC
:102E90008230910509F4A6C234F4009741F00197FD
:102EA00009F476C059C306970CF4C5C255C30E94F5
:102EB0004908803149F0803839F0883049F5A9ED6A
:102EC000B5E0E1EDF5E007C08091D005982F909531
:102ED00090FB80F91BC011921D927B897E13FBCF62
:102EE0000E94350C8091C50580788B618F77809327
:102EF000C50588E08093C6058091C705807C826007
:102F00008093C7058091D005817E86608093D0052F
:102F10001092BE051092BD051092C0051092BF051B
:102F200082E491E00E94210E01E310E01093BE05BF
:102F30000093BD0588E190E09093C0058093BF05A4
:102F40008BE491E00E94210E1093BE050093BD0515
:102F500080E290E09093C0058093BF0581E591E009
:102F60000E94210E8091D00580FF03C088E190E08F
:102F700002C080E290E02AE230E03093BE05209368
:102F8000BD059093C0058093BF0587E591E0E2C23F
:102F900021FB882780F92170821377C00E9449089D
:102FA0008031D9F138F4843009F468C0883009F4EC
:102FB0004BC015C2803431F08038E9F0803209F01E
:102FC0000EC20AC09091C505892F8770987F8730FF
:102FD00061F18F5F877034C02091C505822F8770A3
:102FE00021F427602093C505FAC1895F982F977057
:102FF000822F887F25C08091C505982F987311F482
:1030000088631FC0982F969596959695995F9770AF
:10301000990F990F990F877C13C08091C505282FB0
:103020002873982F977C283319F49093C505D7C13E
:103030008695869586958F5F8770880F880F880F95
:10304000892B8093C505CBC14091C505242F2695BA
:1030500026952695277047708091D00581FF03C083
:1030600062E070E002C061E070E001E081ED95E0B7
:103070000E94F209882309F4B2C178C28091D00578
:10308000837E88608093D005AAC1DE011996F7017E
:1030900011921D922C892E13FBCF80E090E89A8B21
:1030A000898B00E010E0F801E75EF94F6081462F60
:1030B000469546954695477067709E012F5E3F4F37
:1030C000C7010E945D0C0F5F1F4F0430110559F7B7
:1030D00000E010E0F801E35FF94F6081462F46956C
:1030E00046954695477067709E012F5E3F4FC7011A
:1030F0000E945D0C0F5F1F4F0C30110559F700E067
:1031000010E0F801E351FA4F6081462F469546954D
:103110004695477067709E012F5E3F4FC7010E9422
:103120005D0C0F5F1F4F0830110559F7C12CD12CD2
:103130008091D00581FD07C0AA24A394B12C32E070
:10314000832E912C06C082E0A82EB12C8824839473
:10315000912CB6016B507A4F2B01FB014081242F3B
:103160002695269526952770477000E0B50181EDDC
:1031700095E00E94F209882309F471C0F2010081F0
:10318000F02FF7705F2E06950695069507703F2E77
:10319000702F87E08F0F877022242394863008F0E9
:1031A000212C622C650C87E0800F877044244394A7
:1031B000863008F0412C742C700E10E0320C740D27
:1031C000472D662D81ED95E07D8B0E94E2087D897B
:1031D0008815990511F4116009C08A159B0511F431
:1031E000126004C0892B11F414600AC0672F832D6C
:1031F0007D8B0E94D208620C740C7D898111DECF18
:10320000752C7218302E3418432D672D81ED95E002
:103210000E94E2088815990511F4106109C08A1509
:103220009B0511F4106204C0892B11F4106408C0CE
:10323000632D872D0E94D208721834188111E4CFB3
:10324000812F8174813419F01471143141F49E017D
:103250002F5E3F4F402F652DC7010E945D0C2FEF61
:10326000C21AD20A38E1C316D10409F061CF00E0D6
:1032700010E0F801EB51FA4F6081462F46954695D4
:103280004695477067709E012F5E3F4FC7010E94B1
:103290005D0C0F5F1F4F0830110559F700E010E07B
:1032A000F801EF51FA4F6081462F469546954695B5
:1032B000477067709E012F5E3F4FC7010E945D0CF3
:1032C0000F5F1F4F0430110559F700E010E09E0119
:1032D0002F5E3F4F412F602FC7010E945D0C1F5F83
:1032E0001830A9F70F5F083089F789899A89811505
:1032F000904841F080E1F701A1EDB5E001900D9219
:103300008A95E1F70E94CC0D882309F468C080916A
:10331000D0054091C7052091C6058090CC059090BE
:10332000CD05A090CE05B090CF0580FF3AC04F7379
:1033300050E02695269530E0241735072CF5837E3E
:103340008C608093D0057FEF871A970AA70AB70A87
:103350008092CC059092CD05A092CE05B092CF057B
:103360008091C8059091C905A091CA05B091CB057F
:103370000196A11DB11D8093C8059093C905A09326
:10338000CA05B093CB0529C042175307ACF4837E1E
:1033900080618093D0058FEF881A980AA80AB80A2E
:1033A00014C02695269530E04F7350E0421753071E
:1033B00034F2241735075CF3837E84618093D00553
:1033C0009FEF891A990AA90AB90A8092CC059092AE
:1033D000CD05A092CE05B092CF050E94470C0E9469
:1033E0000109BAC00E944908803161F028F4843094
:1033F00071F0883089F406C0803421F0803811F0F3
:10340000803251F48091D005837E846003C0809126
:10341000D005837E8093D00583E190E09093BE0534
:103420008093BD058CE190E09093C0058093BF052B
:1034300089E591E08FC00E944908843011F18830FD
:1034400029F5A9EDB5E0E1EDF5E011921D922B898A
:103450002E13FBCF0E94350C8091C50580788B61BF
:103460008F778093C50588E08093C6058091C70556
:10347000807C82608093C7058091D005817E8660C4
:1034800003C08091D005837E8093D0050E940109FE
:1034900042E350E08AE190E0282F26952695269574
:1034A000FA0130E8239FE00DF11D1124EA56FE4F8A
:1034B0009C012770332761E070E002C0660F771F20
:1034C0002A95E2F79B0120953081232320830196E2
:1034D0008632910509F74F5F5F4F4E345105D1F6A3
:1034E0008091D00586958695877090E0843091050F
:1034F000A1F08530910501F1039771F587E390E024
:103500009093BE058093BD058CE190E09093C0053B
:103510008093BF0589E691E01DC084E390E090931D
:10352000BE058093BD058CE190E09093C00580932B
:10353000BF058DE691E00EC084E390E09093BE0558
:103540008093BD058CE190E09093C0058093BF050A
:1035500082E791E00E94210E0E94230E80E090E01D
:10356000892B09F42ACC0E94000027CC0E94CC0DA4
:10357000882309F434CF8091D0054091C70520916C
:10358000C6058090CC059090CD05A090CE05B0905A
:10359000CF0580FF18C04F7350E02695269530E088
:1035A0002417350754F4837E8C608093D0058FEF09
:1035B000881A980AA80AB80ACBCE4217530774F49F
:1035C000837E8061FBCE2695269530E04F7350E0D8
:1035D0004217530744F32417350794F3837E84611D
:1035E0008093D005EFEF8E1A9E0AAE0ABE0AEDCE8A
:1035F000109224061092230688EE93E0A0E0B0E03B
:103600008093250690932606A0932706B09328065C
:103610008FE191E090932206809321068FEF9FEF38
:1036200090932E0680932D06A9EDB5E0E1EDF5E02F
:1036300088E08E0F11921D928E13FCCF8091C505EC
:1036400080788B618F778093C50588E08093C6056D
:103650008091C705807C82608093C7051092C80561
:103660001092C9051092CA051092CB051092CC0594
:103670001092CD051092CE051092CF058091D00505
:10368000807E83608093D0051092AC051092AB05CC
:103690001092AE051092AF0580E18093B2051092B2
:1036A000B1051092B0051092B7051092B8051092AE
:1036B000B9051092BA051092BB058FE291E0909384
:1036C000AA058093A9051092BE051092BD0510921F
:1036D000C0051092BF0581E08093C1051092C2051C
:1036E0008093C3051092C40580911D06807C8B6178
:1036F00080931D0680911E06807C8C6180931E063F
:1037000080911F06807C836280931F068091200633
:10371000807C84628093200680911906807C80934F
:10372000190680911A068760877C80931A0680911B
:103730001B068F6380931B0680911C06887F88631D
:1037400080931C0680910D06807C826180930D061B
:1037500080910E06807C836180930E0680910F0617
:10376000807C846180930F0680911006807C856147
:103770008093100680911106807C8D6180931106E4
:1037800080911206807C85628093120680911306D8
:10379000807C8D628093130680911406807C8C62FD
:1037A0008093140680911506807C8B6280931506A9
:1037B00080911606807C8A62809316068091170697
:1037C000807C82628093170680911806807C8A61D3
:1037D000809318068091F505807C81608093F505C3
:1037E0008091F605807C82608093F6058091F705D4
:1037F000807C83608093F7058091F805807C8460ED
:103800008093F8058091F905807C85608093F905A7
:103810008091FA05807C86608093FA058091FB0593
:10382000807C8F608093FB058091FC05807C8761A4
:103830008093FC058091FD05807C8F618093FD0560
:103840008091FE05807C87628093FE058091FF0554
:10385000807C8F628093FF0580910006807C876367
:103860008093000680910106887F8E638093010615
:1038700080910206887F8D63809302068091030603
:10388000887F8C638093030680910406887F8B6316
:103890008093040680910506887F8A6380930506DD
:1038A00080910606887F89638093060680910706CB
:1038B000807C80638093070680910806807C886204
:1038C0008093080680910906807C806280930906B7
:1038D00080910A06807C886180930A0680910B069D
:1038E000807C806180930B0680910C06807C8860D0
:1038F00080930C068091ED05807C8B608093ED05B4
:103900008091EE05807C8C608093EE058091EF05C0
:10391000807C8E618093EF058091F005807C8662CB
:103920008093F0058091F105807C84638093F1059C
:103930008091F205807C83638093F2058091F3058A
:10394000807C81628093F3058091F405807C89619D
:103950008093F4058091E505807C8A608093E5057D
:103960008091E605807C8D608093E6058091E70577
:10397000807C86618093E7058091E805807C8E627B
:103980008093E8058091E905807C85638093E90553
:103990008091EA05807C82638093EA058091EB0543
:1039A000807C89628093EB058091EC05807C81614D
:1039B0008093EC058091E105807C89608093E1052E
:1039C0008091E205807C8E608093E2058091E30522
:1039D000807C86638093E3058091E405807C81632D
:1039E0008093E4050895AA1BBB1B51E107C0AA1FE1
:1039F000BB1FA617B70710F0A61BB70B881F991F90
:103A00005A95A9F780959095BC01CD010895EE0FC8
:103A1000FF1F0590F491E02D099481E090E0F89467
:103A20000C94431E8F929F92AF92BF92CF92DF92DF
:103A3000EF92FF92CF93DF93EC01688179818A81C5
:103A40009B81611571058105910521F464E279ED91
:103A50008BE597E02DE133EF41E050E00E94E01D5F
:103A600049015A019B01AC01A7EAB1E40E94FF1D84
:103A70006B017C01ACEEB4EFA50194010E940D1E18
:103A8000DC01CB018C0D9D1DAE1DBF1DB7FF03C01A
:103A90000197A109B04888839983AA83BB839F7744
:103AA000DF91CF91FF90EF90DF90CF90BF90AF90DC
:103AB0009F908F9008950E94121D08958CE091E0D0
:103AC0000E94121D0895A0E0B0E080930C01909335
:103AD0000D01A0930E01B0930F0108958F929F9254
:103AE000AF92BF92CF92DF92EF92FF92CF93DF938C
:103AF000EC01688179818A819B816115710581055D
:103B0000910521F464E279ED8BE597E02DE133EF47
:103B100041E050E00E94E01D49015A019B01AC01C7
:103B2000A7EAB1E40E94FF1D6B017C01ACEEB4EF8B
:103B3000A50194010E940D1EDC01CB018C0D9D1D81
:103B4000AE1DBF1DB7FF03C00197A109B048888310
:103B50009983AA83BB83BC01CD019F77DF91CF916D
:103B6000FF90EF90DF90CF90BF90AF909F908F909D
:103B700008950E946E1D089580E191E00E946E1DDF
:103B80000895609310017093110180931201909336
:103B900013010895F999FECF92BD81BDF89A992736
:103BA00080B50895262FF999FECF1FBA92BD81BD29
:103BB00020BD0FB6F894FA9AF99A0FBE01960895AF
:103BC000052E97FB1EF400940E94F71D57FD07D0A9
:103BD0000E94121E07FC03D04EF40C94F71D509562
:103BE0004095309521953F4F4F4F5F4F08959095E9
:103BF0008095709561957F4F8F4F9F4F08950E94DC
:103C0000341EA59F900DB49F900DA49F800D911D13
:103C100011240895B7FF0C94FF1D0E94FF1D821B05
:103C2000930B0895A1E21A2EAA1BBB1BFD010DC028
:103C3000AA1FBB1FEE1FFF1FA217B307E407F5075C
:103C400020F0A21BB30BE40BF50B661F771F881F38
:103C5000991F1A9469F760957095809590959B01CE
:103C6000AC01BD01CF010895A29FB001B39FC00177
:103C7000A39F700D811D1124911DB29F700D811D98
:0A3C80001124911D0895F894FFCF60
:103C8A0000E1000000000000FFFFFFFF010000004C
:103C9A000100000000C18081000000000000005502
:103CAA000BA90BC20F9F107B106B0B000000003199
:103CBA00050605506F636B6574204F7468656C6CFC
:103CCA006F00506C61792061733A00424C41434B5A
:103CDA00005748495445003E00505245535320422C
:103CEA0020544F20455849540057494E004C4F53D1
:103CFA0045004452415700574F4E0053554D00005E
:00000001FF
