:100000000C944E050C9476050C9476050C947605AC
:100010000C9476050C9476050C9476050C94760574
:100020000C9476050C9476050C942A120C949C1270
:100030000C9476050C9476050C9476050C94760554
:100040000C9476050C9450090C9476050C94760566
:100050000C9476050C9476050C9476050C94630844
:100060000C9476050C9476050C9476050C94760524
:100070000C9476050C9476050C9476050C94760514
:100080000C94EE090C9476050C9476050C94760588
:100090000C9476050C9476050C9476050C947605F4
:1000A0000C9476050C9476050C947605F806FB0600
:1000B000EA06EE06F2061C071C071C07FF060307EC
:1000C00007070D0711071C071707930798079D07D8
:1000D000A707B107FB07FB07FB07BB07C507CF0750
:1000E000D907E607FB07EE07F0F89C8E8783878E1B
:1000F0009CF8F00000FEFF0303030303070EFCF867
:100100000000FEFF0303030303070EFCF80000FFDB
:10011000FF00000000000000FFFF0000FEFF8383DF
:10012000838383C7EE7C380000F8FC0E07030303CB
:10013000070EFCF800003F7FE0C08080C0E07F3FFA
:10014000FFFF01010101010101FFFF0000FFFF0CA2
:100150000C0C0C1C3E77E3C100007FFFC0C0C0C088
:10016000C0E0703F1F00001F3F70E0C0C0C0E070E3
:100170003F1F00007FFFC1C1C1C1C1E3773E1C002A
:10018000001F3F70E0C0C0C0E0703F1F00000000D3
:100190000001FFFF01000000000000002400270014
:1001A0002A002D003000D5F08D14A1C881CFD9F1DF
:1001B000AF20001402130212021502070208020403
:1001C000010C01060100003C424242423C0000009A
:1001D0001824241800000000183C3C1800000000FF
:1001E0000000000000000090AABC80808080BEA4B7
:1001F000988080808098A4A48080808098A4BE800D
:100200008080809CAA8C8080808088BC8A8080804E
:1002100080A4AA9480808080BE88B0800000000006
:10022000003E000000FE414040404040FF40404052
:10023000404040FF404040404040FF404040404040
:1002400040FF404040404040FF404040404040FF71
:10025000404040404040FF404040404041FE0000A0
:100260009995120000FF202020202020FF20202030
:10027000202020FF202020202020FF2020202020C0
:1002800020FF202020202020FF202020202020FFD1
:10029000202020202020FF202020202020FF0000E0
:1002A000880AC50000FF101010101010FF10101069
:1002B000101010FF101010101010FF101010101060
:1002C00010FF101010101010FF101010101010FF61
:1002D000101010101010FF101010101010FF000060
:1002E000E3A2270000FF080808080808FF0808081C
:1002F000080808FF080808080808FF080808080890
:1003000008FF080808080808FF080808080808FF88
:10031000080808080808FF080808080808FF00007F
:10032000E252810000FF040404040404FF040404F6
:10033000040404FF040404040404FF040404040487
:1003400004FF040404040404FF040404040404FF7C
:10035000040404040404FF040404040404FF00006F
:1003600008E9180000FF020202020202FF02020274
:10037000020202FF020202020202FF020202020263
:1003800002FF020202020202FF020202020202FF56
:10039000020202020202FF020202020202FF000047
:1003A00028542800003F418181818181FF81818122
:1003B000818181FF818181818181FF818181818131
:1003C00081FF818181818181FF818181818181FFA3
:1003D000818181818181FF8181818181413F000013
:1003E0000000003E5B4F5B3E3E6B4F6B3E1C3E7C15
:1003F0003E1C183C7E3C181C577D571C1C5E7F5EC3
:100400001C00183C1800FFE7C3E7FF001824180081
:10041000FFE7DBE7FF30483A060E26297929264018
:100420007F050507407F05253F5A3CE73C5A7F3E44
:100430001C1C08081C1C3E7F14227F22145F5F00D6
:100440005F5F06097F017F006689956A6060606072
:100450006094A2FFA29408047E040810207E20105D
:1004600008082A1C08081C2A08081E101010100C66
:100470001E0C1E0C30383E3830060E3E0E060000B4
:1004800000000000005F00000007000700147F1458
:100490007F14242A7F2A12231308646236495620C7
:1004A000500008070300001C2241000041221C00EC
:1004B0002A1C7F1C2A08083E0808008070300008AB
:1004C00008080808000060600020100804023E517F
:1004D00049453E00427F4000724949494621414911
:1004E0004D331814127F1027454545393C4A494978
:1004F0003141211109073649494936464949291EE2
:1005000000001400000040340000000814224114D0
:1005100014141414004122140802015909063E4122
:100520005D594E7C1211127C7F494949363E41414A
:1005300041227F4141413E7F494949417F090909A3
:10054000013E414151737F0808087F00417F41000F
:100550002040413F017F081422417F404040407FBE
:10056000021C027F7F0408107F3E4141413E7F090B
:100570000909063E4151215E7F091929462649494C
:10058000493203017F01033F4040403F1F2040208C
:100590001F3F4038403F631408146303047804038A
:1005A0006159494D43007F41414102040810200038
:1005B0004141417F040201020440404040400003A9
:1005C00007080020545478407F2844443838444475
:1005D0004428384444287F385454541800087E096D
:1005E0000218A4A49C787F0804047800447D40008D
:1005F0002040403D007F1028440000417F40007CA7
:10060000047804787C080404783844444438FC189E
:1006100024241818242418FC7C0804040848545482
:10062000542404043F44243C4040207C1C204020AF
:100630001C3C4030403C44281028444C9090907C16
:100640004464544C44000836410000007700000028
:100650004136080002010204023C2623263C1EA16A
:10066000A161123A4040207A3854545559215555C9
:10067000794121545478412155547840205455797A
:10068000400C1E527212395555555939545454590B
:1006900039555454580000457C410002457D4200C4
:1006A00001457C40F0292429F0F0282528F07C54CD
:1006B0005545002054547C547C0A097F49324949ED
:1006C00049323248484832324A4848303A4141215A
:1006D0007A3A42402078009DA0A07D3944444439B4
:1006E0003D4040403D3C24FF2424487E4943662B46
:1006F0002FFC2F2BFF0929F620C0887E09032054E8
:100700005479410000447D413048484A32384040E5
:10071000227A007A0A0A727D0D19317D2629292F45
:1007200028262929292630484D402038080808085D
:1007300008080808382F10C8ACBA2F102834FA005F
:10074000007B000008142A142222142A14089500A1
:10075000220095AA005500AAAA55AA55AA00000091
:10076000FF00101010FF00141414FF001010FF0001
:10077000FF1010F010F0141414FC001414F700FF14
:100780000000FF00FF1414F404FC141417101F10D1
:10079000101F101F1414141F00101010F000000080
:1007A000001F101010101F10101010F0100000008B
:1007B000FF101010101010101010FF10000000FF9C
:1007C000140000FF00FF00001F10170000FC04F4DD
:1007D00014141710171414F404F40000FF00F71495
:1007E000141414141414F700F7141414171410101C
:1007F0001F101F141414F4141010F010F000001F38
:10080000101F0000001F14000000FC140000F01076
:10081000F01010FF10FF141414FF141010101F001C
:10082000000000F010FFFFFFFFFFF0F0F0F0F0FF1E
:10083000FFFF0000000000FFFF0F0F0F0F0F3844F5
:100840004438447C2A2A3E147E02020606027E02B6
:100850007E0263554941633844443C04407E201E77
:100860002006027E020299A5E7A5991C2A492A1CA6
:100870004C7201724C304A4D4D303048784830BC93
:10088000625A463D3E494949007E0101017E2A2ABD
:100890002A2A2A44445F444440514A444040444A3E
:1008A00051400000FF0103E080FF000008086B6B6F
:1008B000083612362436060F090F060000181800F5
:1008C00000001010003040FF0101001F01011E0058
:1008D000191D1712003C3C3C3C00000000000601C2
:1008E0001501260137014A015D01720188019F014E
:1008F000B801D201EE010B022A024B026E029302F2
:10090000BA02E40210033F037003A403DC031704DC
:1009100055049704DD0427057505C80520067D06E6
:10092000E0064907B8072D08A9082D09B9094D0A9D
:10093000EA0A900B400CFA0CC00D910E6F0F5A1082
:1009400053115B1272139A14D41520178018F519DD
:10095000801B231DDE1EB420A622B524E4263429E4
:10096000A72B402E0031EA330037453ABC3D6841A1
:100970004C456B49C84D68524F57805C006210115E
:100980001213151617181A1C1D1F21232527292C91
:100990002E3134373A3E4145494E52575C62686EBB
:1009A000757B838B939CA5AFB9C4D0DCE9F70000BD
:1009B000000200090F0000030401000C0000000009
:1009C0000000000000000000000000000004080219
:1009D00001104080401020408040800802040180C7
:1009E0004020100201108010204040200000000034
:1009F000250028002B002E00310004040404040309
:100A000004050202020204030202020206060606AE
:100A10000606040402020204040301080B00020299
:100A20000201000904000001020200000524001078
:100A30000105240101010424020605240600010722
:100A400005810310004009040100020A00000007AC
:100A5000050202400000070583024000000403096C
:100A60000441726475696E6F204C4C43004172649E
:100A700075626F79001201000200000040412336C8
:100A80008000010102030112010002EF0201404156
:100A900023368000010102030100D41B11241FBE74
:100AA000CFEFDAE0DEBFCDBF28E0A0E8B1E001C0C3
:100AB0001D92A437B207E1F711E0A0E0B1E0E4E154
:100AC000FEE302C005900D92A038B107D9F715E0FA
:100AD000CEE4D5E004C02197FE010E94CC1DCD34A8
:100AE000D107C9F70E94D9140C94081F0C94000078
:100AF000CF92DF92EF92FF920F931F93CF93DF93EA
:100B00006C017A018B01C0E0D0E0CE15DF0589F0E1
:100B1000D8016D918D01D601ED91FC910190F0818C
:100B2000E02DC6010995892B11F47E0102C02196A2
:100B3000ECCFC701DF91CF911F910F91FF90EF9004
:100B4000DF90CF9008952F923F924F925F926F92D5
:100B50007F928F929F92AF92BF92CF92DF92EF924D
:100B6000FF920F931F93CF93DF9300D000D000D05C
:100B7000CDB7DEB76A3091F4FC01E85EFB4F4081EF
:100B800032972081318158E0459F200D311D11247D
:100B900031832083329711821082E4C06D3009F4D2
:100BA000E1C0FC01E85EFB4FD0803297608071802D
:100BB0001C017CEE271A7BEF370AD1012D913C9165
:100BC0000D2D10E0203831057CF0B6E0DB9E200DC5
:100BD000311D1124F10131832083FC01E75EFB4FBD
:100BE0004081411194C0BEC0F0E46F1671046CF7EF
:100BF000A90175E0D79E400D511D1124141615064C
:100C000024F7A80173E0440F551F7A95E1F7460DCC
:100C1000571D14161506CCF6E5E06E9FD001112481
:100C2000BA83A983490160E070E044244394512CC5
:100C30006530710541F0E981FA81E60FF71FE25254
:100C4000FC4FE49101C0E0E05301F8E04E2F417009
:100C5000C42E9C828B824B8148194D1508F048C0E8
:100C6000A501F42EB42FBA19BD15D8F5AB81BC81FE
:100C7000A038B10598F54034510580F5AF2DA69503
:100C8000A695A695EA2EF12CDA01A770BB27BE83A4
:100C9000AD83D701B695BA2FAA27B795A795EB8054
:100CA000FC80AE0DBF1DA80FB91F72010D8002C0E0
:100CB000EE0CFF1C0A94E2F7FE82ED82CC2031F0AC
:100CC0005496FC905497ED80EF2806C0ED80E09498
:100CD0005496FC905497EF205496EC924F5F5F4FE0
:100CE000C0CF4B815C814F5F5F4F5C834B83B3CF41
:100CF000E695F150A00EB11EF111A8CF6F5F7F4FA6
:100D0000800E911E6630710509F092CF5ECF6AEFBA
:100D10006003A001619F500D112440585F4F42179E
:100D2000530704F5DC01ED91FC910190F081E02D79
:100D30006AE026960FB6F894DEBF0FBECDBFDF91F6
:100D4000CF911F910F91FF90EF90DF90CF90BF90C8
:100D5000AF909F908F907F906F905F904F903F905B
:100D60002F90099426960FB6F894DEBF0FBECDBF24
:100D7000DF91CF911F910F91FF90EF90DF90CF9077
:100D8000BF90AF909F908F907F906F905F904F90AB
:100D90003F902F9008950E94D21D362F90E0FC01C5
:100DA000E255F64F4491FC01E353F64F2491FC01C8
:100DB000E650F64F8491882309F451C04423E1F1B1
:100DC00050E0FA013197EF30F105B0F5EA5AFF4FE4
:100DD0000C94CC1D909180009F7707C0909180006B
:100DE0009F7D03C090918000977F9093800024C0E6
:100DF00094B59F7702C094B59F7D94BD1DC090911E
:100E000090009F7707C0909190009F7D03C09091C4
:100E10009000977F909390000FC09091C0009F77B3
:100E200003C09091C0009F7D9093C00005C0909139
:100E3000C200977F9093C200E82FF0E0EE0FFF1FF3
:100E4000E451F64FA591B4918FB7F894EC9131111C
:100E500003C020952E2301C02E2B2C938FBF089505
:100E6000CF93DF9390E0FC01E353F64F2491FC0114
:100E7000E650F64F8491882361F190E0880F991F26
:100E8000FC01E856FE4FC591D491FC01E451F64FA8
:100E9000A591B491611109C09FB7F89488812095FC
:100EA00082238883EC912E230BC0623061F49FB7BC
:100EB000F8943881822F809583238883EC912E2BA0
:100EC0002C939FBF06C08FB7F894E8812E2B288300
:100ED0008FBFDF91CF9108951F93CF93DF93182F8A
:100EE000EB0161E00E943007209711F460E004C03C
:100EF000CF3FD10539F461E0812FDF91CF911F9170
:100F00000C94CD06E12FF0E0E255F64FE4914E2F20
:100F100050E0FA013197EF30F10508F06CC0EB5961
:100F2000FF4F0C94CC1D84B5806884BDC7BD68C0DC
:100F300084B5806284BDC8BD63C080918000806834
:100F400080938000D0938900C093880059C080911D
:100F50008000806280938000D0938B00C0938A00D1
:100F60004FC080918000886080938000D0938D0076
:100F7000C0938C0045C08091900080688093900061
:100F8000D0939900C09398003BC0809190008062FC
:100F900080939000D0939B00C0939A0031C08091C1
:100FA0009000886080939000D0939D00C0939C0037
:100FB00027C08091C00080688093C0008091C000ED
:100FC0008F7B8093C000C093CF001AC08091C00077
:100FD00080628093C000C093D00012C08091C20094
:100FE00088608093C2008091C2008B7F8093C20092
:100FF000C093D20005C0C038D1050CF07CCF76CFAD
:10100000DF91CF911F9108953FB7F89480919D0192
:1010100090919E01A0919F01B091A00126B5A89B3F
:1010200005C02F3F19F00196A11DB11D3FBFBA2F7A
:10103000A92F982F8827820F911DA11DB11DBC01DA
:10104000CD0142E0660F771F881F991F4A95D1F79F
:1010500008958F929F92AF92BF92CF92DF92EF92BC
:10106000FF926B017C010E9404084B015C01C114DA
:10107000D104E104F104F1F00E940408DC01CB0189
:1010800088199909AA09BB09883E9340A105B105B1
:1010900070F321E0C21AD108E108F10888EE880E49
:1010A00083E0981EA11CB11CC114D104E104F10419
:1010B00019F7DDCFFF90EF90DF90CF90BF90AF900A
:1010C0009F908F9008951F920F920FB60F92112448
:1010D0002F933F938F939F93AF93BF938091810101
:1010E00090918201A0918301B091840130919C0183
:1010F00023E0230F2D3720F40196A11DB11D05C05B
:1011000026E8230F0296A11DB11D20939C01809318
:10111000810190938201A0938301B0938401809117
:101120009D0190919E01A0919F01B091A001019617
:10113000A11DB11D80939D0190939E01A0939F01DD
:10114000B093A001BF91AF919F918F913F912F914B
:101150000F900FBE0F901F9018958FB12CB193B1C7
:1011600030E02095309520743327A90123E0559570
:1011700047952A95E1F7292F30E020953095207189
:1011800033273595279535952795242B8095807F96
:10119000822B0895FC0121912EBD9C5F21910DB4FD
:1011A00007FEFDCF2EBDE817F907C1F70DB407FE06
:1011B000FDCF0895CF92DF92EF92FF920F931F938E
:1011C000CF93E82FF0E0E75EF54FC491E62FF0E013
:1011D000603330F4E258F64FE4910E2F10E006C071
:1011E000EE0FFF1FE258F74F059114916801E12CB3
:1011F000F12C60E074E284EF90E0A70196010E9478
:10120000A51EBA01A9014150510961097109411591
:10121000510581E06807710580F060E970ED83E0B9
:1012200090E0A70196010E94A51EBA01A9014150B4
:1012300051096109710983E001C081E0C130C9F041
:10124000C33031F590919100987F892B8093910064
:10125000509399004093980010939B0100939A013A
:1012600081E0809399018091710082608093710088
:101270000FC090918100987F892B809381005093BB
:1012800089004093880080916F00826080936F0096
:10129000CF911F910F91FF90EF90DF90CF90089525
:1012A0001F920F920FB60F9211242F933F938F939B
:1012B0009F93AF93BF93EF93FF9380919201882305
:1012C00009F44DC080918E0190918F01A091900101
:1012D000B0919101892B8A2B8B2B51F18091A80120
:1012E000E091A901F091AA019081892780838091E2
:1012F0008E0190918F01A0919001B09191011816EB
:1013000019061A061B06A4F580918E0190918F0193
:10131000A0919001B09191010197A109B109809329
:101320008E0190938F01A0939001B093910120C002
:101330001092920180916F008D7F80936F00909149
:10134000A801E091A901F091AA018081282F30E045
:10135000892F90E0809590958223932308C08091F7
:10136000A801E091A901F091AA01908189278083C9
:10137000FF91EF91BF91AF919F918F913F912F91ED
:101380000F900FBE0F901F901895E82FF0E0E75ECA
:10139000F54FE491E13019F0E33069F00895809160
:1013A0006F008D7F80936F009091A801E091A9015B
:1013B000F091AA0108C0109299019091A501E091C5
:1013C000A601F091A7018081282F30E0892F90E0BD
:1013D0008095909582239323808308951F920F9286
:1013E0000FB60F9211242F933F934F935F936F93F8
:1013F0007F938F939F93AF93BF93EF93FF938091CE
:101400009901882349F08091A501E091A601F0910E
:10141000A70190818927808380918001882309F426
:1014200093C08091950190919601A0919701B09100
:101430009801892B8A2B8B2B09F486C0809195010A
:1014400090919601A0919701B09198010197A109FF
:10145000B1098093950190939601A0939701B09361
:101460009801892B8A2B8B2B09F06EC0E091930198
:10147000F0919401BF016F5F7F4F7093940160936F
:1014800093014491942F907F842F8F70903819F49A
:101490000E94C509EBCF903981F43296F093940104
:1014A000E0939301FB0164919091AB018917F0F6F1
:1014B00067FDDCCF0E94DA08D9CF903E29F4109264
:1014C000940110929301D2CF903F19F410928001B1
:1014D0003BC097FDCBCF3296F0939401E0939301FC
:1014E000FB01249130E0342BA0919A01B0919B0133
:1014F0000E94F91E6C507E4F8F4F9F4F28EE33E0B5
:1015000040E050E00E94D71E209395013093960151
:101510004093970150939801809195019091960185
:10152000A0919701B0919801892B8A2B8B2B61F4A4
:1015300081E090E0A0E0B0E0809395019093960167
:10154000A0939701B0939801FF91EF91BF91AF9154
:101550009F918F917F916F915F914F913F912F91CB
:101560000F900FBE0F901F9018958091C10186FDBE
:1015700006C00E94AD08982F907486FD0AC0809125
:10158000C10186FD0AC00E94AD08982F907285FFA8
:1015900004C08091C101806417C08091C10187FDA2
:1015A00006C00E94AD08982F9078903851F0809135
:1015B000C10187FD0CC00E94AD08982F907184FF77
:1015C00006C08091C10180688093C10155C080919F
:1015D000C10186FF08C00E94AD08807621F4809189
:1015E000C1018F7B19C08091C10187FF04C00E9497
:1015F000AD08807971F08091C20180FD10C00E9419
:10160000AD08982F987083FF0AC08091C201816055
:101610002FC08091C1018F778093C101ECCF809161
:10162000C20181FD06C00E94AD08982F947082FD12
:101630000EC08091C20180FF0EC00E94AD08982F9D
:10164000987083FD08C08091C2018E7F11C0809187
:10165000C20182600DC08091C20181FF0CC00E9456
:10166000AD08982F947082FD06C08091C2018D7FD5
:101670008093C20101C090E0892F0895FC01E40F1E
:10168000F11D208130E0062E02C0359527950A9481
:10169000E2F720FF0CC0808590E002C09595879509
:1016A0006A95E2F780FF06C082E090E0089580E04E
:1016B00090E0089581E090E00895CF92DF92EF925C
:1016C000FF920F93CF93DF9300E420E44EED51E0BF
:1016D00060E070E080E090E00E944C0F97E0C92E3F
:1016E000D12CD0E087E0E82EF12CC0E04C2F6D2FFC
:1016F0008EEC91E00E943E0B8130910529F408E0C8
:1017000028E046ED51E006C0029741F408E028E0E9
:101710004EEC51E0B701C6010E944C0FCF5F27E0AD
:10172000E20EF11CC83011F7DF5F87E0C80ED11C54
:10173000D830C1F6809185018F30C8F08091C10109
:10174000682F6695669566956770877097E0699FC4
:10175000B0011124695F7F4F27E0829FC0011124EF
:1017600008E028E046EC51E007960E944C0F08E0A4
:1017700028E04EEC51E068E070E087E590E00E94E0
:101780004C0FC0E6D0E0D093E307C093E20788E0B7
:1017900090E09093E5078093E4076091C3016F7335
:1017A00070E080E090E04AE00E940B0F28E046EDF8
:1017B00051E060E170E087E590E00E944C0FD0932B
:1017C000E307C093E20780E190E09093E507809300
:1017D000E4076091C2016695669570E080E090E054
:1017E0004AE00E940B0FC6E4D0E0D093E307C09319
:1017F000E20780E290E09093E5078093E40787E7B3
:1018000091E00E94FA0ED093E307C093E20788E2CA
:1018100090E09093E5078093E4076091C401709194
:10182000C5018091C6019091C7014AE00E940B0F4B
:10183000D093E307C093E20780E390E09093E5073D
:101840008093E4078BE791E00E94FA0ED093E307C0
:10185000C093E20788E390E09093E5078093E40764
:101860006091C8017091C9018091CA019091CB012A
:101870004AE0DF91CF910F91FF90EF90DF90CF90F2
:101880000C940B0FCF92DF92EF92FF920F931F9366
:10189000CF93DF936B017C01CB010E948F1EC82F79
:1018A000C60101960E948F1ED82FC60102960E9483
:1018B0008F1E082FC60103960E948F1E4D2F50E0E9
:1018C00060E070E0762F652F542F442710E020E071
:1018D00030E0980111270027400F511F621F731F2E
:1018E0004C0F511D611D711D90E0A0E0B0E0B82FBC
:1018F000AA27992788278A019B01080F191F2A1FE9
:101900003B1FC901B801DF91CF911F910F91FF904B
:10191000EF90DF90CF900895CF92DF92EF92FF92F9
:10192000CF93DF93EC016A017B01642F0E94971E25
:1019300099278F2D7E2D6D2DCE0101960E94971E29
:10194000B70188279927CE0102960E94971E6F2D16
:10195000772788279927CE010396DF91CF91FF90B3
:10196000EF90DF90CF900C94971ECF93DF931F9250
:10197000CDB7DEB76983DC01ED91FC910280F38184
:10198000E02D41E050E0BE016F5F7F4F09950F9061
:10199000DF91CF91089583E08093E9008091F20078
:1019A000882319F08AE38093E8000895009769F08E
:1019B000FC0101900020E9F73197AF01481B590B5A
:1019C000BC018EEC93E00C94780580E090E00895E3
:1019D0008F929F92AF92BF92CF92DF92EF92FF923F
:1019E0000F931F93CF93DF935C016B018A0180916A
:1019F0000701882309F45EC08091A401882309F4BB
:101A000059C08091A20180FF05C08091E0008260F2
:101A10008093E000E8018AEFF82E93E0E92E2FE3AF
:101A2000822E3AE3932E209709F43DC08FB7F894A5
:101A3000E092E9009091E80095FF06C09091F200D5
:101A4000282D291B922F01C090E08FBF91110AC051
:101A5000FA94FF2079F161E070E080E090E00E946C
:101A60002908E1CF292F30E0C217D3070CF49C2FAF
:101A70008FB7F894E092E9002091E80025FF11C0AB
:101A8000292F30E0C21BD30BF601915020F0419179
:101A90004093F100FACFC20ED31E9091E80095FF5B
:101AA00013C08FBFC0CF5D9884E68093A10110164C
:101AB000110644F081E090E0F5019383828380E099
:101AC00090E005C0C80103C09092E800EACFDF9122
:101AD000CF911F910F91FF90EF90DF90CF90BF902B
:101AE000AF909F908F900895EDECF1E08485877F13
:101AF00094819861948380618487858595819861BC
:101B000095838F7E88608587CF0108958091CC0171
:101B100081FF03C082E090E0089581E090E00895A5
:101B2000CF93DF93C1ECD1E04B815C816D817E81ED
:101B30008CEB92E00E948C0C4F81588569857A85E8
:101B400084EC92E0DF91CF910C948C0C2F923F9219
:101B50004F925F926F927F928F929F92AF92BF92BD
:101B6000CF92DF92EF92FF920F931F93CF93DF9369
:101B700000D000D01F92CDB7DEB74C01662E542E98
:101B8000422E0E943E0B892BE9F58091CC01827098
:101B900089831C821FEFEE24E394F12CC62CD12CF8
:101BA000A52CB12C2FEF2D832D81211102C01123E3
:101BB000F9F0352C7D80760C212C072D310E432D2C
:101BC000672DC4010E943E0B892B91F0211027C084
:101BD000432D672DC4010E943E0B2981211114C0A1
:101BE00042E050E084179507B9F087E0871578F454
:101BF0002D812F5F2D832230B9F61F5F123091F6B1
:101C00008C816CC080E06AC041E050E0EBCF2D8158
:101C1000720E831590F6ECCF22242394E6CF81E058
:101C20002812E3CF432D672DC4010E943E0BAC0167
:101C30002981211103C082E090E002C081E090E0A0
:101C40004817590791F24A835B830E94860D4A81A7
:101C50005B814817590749F62C812F5F2C8344205C
:101C600039F2802F002E000C990B8C159D0571F117
:101C70002D81021B311A0E94860DE32DF0E00097A2
:101C800069F4E80DF91DC701002E01C0880F0A9400
:101C9000EAF78095908189238083E3CF9701002E16
:101CA00001C0220F0A94EAF7E80DF91D4081422B8A
:101CB00040838130910521F420958085282304C03C
:101CC000029779F68085282B2087CBCF832D032C94
:101CD000000C990B8A159B0559F68ACF0F900F902F
:101CE0000F900F900F90DF91CF911F910F91FF9068
:101CF000EF90DF90CF90BF90AF909F908F907F90AC
:101D00006F905F904F903F902F9008950F931F9387
:101D1000CF93DF938C01D0E0C0E020E04C2F6D2FFB
:101D2000C8010E94A60D811108C0CF5FC830A9F775
:101D3000DF5FD83089F780E001C081E0DF91CF918B
:101D40001F910F910895EF92FF920F931F93CF93DE
:101D5000DF937C0100E0D0E0C0E010E0412F602F75
:101D6000C7010E943E0B8130910511F4DF5F03C073
:101D7000029709F4CF5F1F5F183081F70F5F0830BB
:101D800061F7DD0FDD0F8091C2018370D82BD093F6
:101D9000C201CF738091C301807CC82BC093C30163
:101DA0008091CC0181FD03C062E070E002C061E07F
:101DB00070E0C7010E94860E882369F08091CC01F3
:101DC00081FB222720F991E0922790FB81F98093F3
:101DD000CC0180E008C00E94860DBC01C7010E94B2
:101DE000860E91E08927DF91CF911F910F91FF908F
:101DF000EF9008950C94D60C20E082EE93E0B22F81
:101E0000B111BFEFFC010024B193B193B193B19331
:101E10000394D1F708958F929F92AF92BF920F9340
:101E20001F93CF93DF93CDB7DEB7A1970FB6F8948A
:101E3000DEBF0FBECDBF19A2423008F44AE08E01CA
:101E40000F5D1F4F842E912CA12CB12CA501940164
:101E50000E94D71EE62FB901CA0101501109EA30CC
:101E600014F4E05D01C0E95CD801EC93232B242B32
:101E7000252B61F7C8010E94D60CA1960FB6F894E5
:101E8000DEBF0FBECDBFDF91CF911F910F91BF90ED
:101E9000AF909F908F9008952F923F924F925F92B4
:101EA0006F927F928F929F92AF92BF92CF92DF926A
:101EB000EF92FF920F931F93CF93DF93CDB7DEB7CF
:101EC00027970FB6F894DEBF0FBECDBFA22EB12C60
:101ED0009C012A0D3B1D37FDC1C0803891050CF0D7
:101EE000BDC09B01200F311D37FDB8C060347105A6
:101EF0000CF0B4C0DB0177FF04C0AA27BB27A61BE8
:101F0000B70BA770BB279B0177FF02C0295F3F4F2C
:101F1000F3E035952795FA95E1F777FF08C0215052
:101F2000310968E070E04B018A1A9B0AD401402E07
:101F3000469446944694512C077019F00FEF401ABE
:101F4000500AB9017695762F662777956795680FC1
:101F5000791F420E531EE12CF12CE8E0F0E04F0116
:101F60008A1A9B0A9F828E822415350509F476C051
:101F70002830310509F472C02F3F0FEF30070CF401
:101F800063C03B0110E8610E711C8B010E591B4FA1
:101F90006C011B821A828A809B808A149B040CF03D
:101FA00053C0E0E8CE16D10409F44EC0D7FC41C0BE
:101FB0002F3FFFEF3F0709F44EC0EA81FB81EE0D92
:101FC000FF1DE40FF51FE491480186189708860E5F
:101FD000971E2E2E312CF1010A2E02C0EE0FFF1F8C
:101FE0000A94E2F7FD83EC83F4012080EC81FD810B
:101FF000E229FD83EC833C80F40130821097C9F024
:1020000027303105B1F0EA81FB81EE0DFF1DE40FB1
:10201000F51FE491F0E01F010E8002C03594279473
:102020000A94E2F7F8019080F101E9294F01F801E3
:102030008082EA81FB813196FB83EA830F5F1F4F29
:10204000FFEFCF1ADF0AA7CF2F5F3F4FEA0CFB1C31
:1020500060587F4F89CF1097B1F6EBCF27960FB618
:10206000F894DEBF0FBECDBFDF91CF911F910F91CE
:10207000FF90EF90DF90CF90BF90AF909F908F90A8
:102080007F906F905F904F903F902F900895CF93E7
:10209000DF939091AB01923009F46EC0C82F292FC5
:1020A00030E0F901E75EF54FD491F901E854FE4FB5
:1020B00080839F5F9093AB0161E00E943007D13035
:1020C00019F0D33039F158C010928000109281007D
:1020D000809181008860809381008091810081607F
:1020E000809381008C2F90E0FC01E650F64FE49144
:1020F000F0E0EE0FFF1FE451F64F2591349130933D
:10210000AA012093A901FC01E353F64F8491809327
:10211000A80132C01092900010929100809191001D
:1021200088608093910080919100816080939100FC
:102130008C2F90E0FC01E650F64FE491F0E0EE0FBA
:10214000FF1FE451F64F259134913093A70120935E
:10215000A601FC01E353F64F84918093A501809181
:10216000AB01882321F06CE380E00E94DA0880E074
:10217000DF91CF910C94C509DF91CF910895FC01B7
:102180008091A401811103C08FEF9FEF08959FB745
:10219000F89482E08093E9002091F20030E012167A
:1021A000130614F421E030E02115310559F0289888
:1021B00084E68093A3018091F10080838091F200F6
:1021C000882319F09FBFC90108958BE68093E8002A
:1021D000F9CF8091B00181110DC082E08093AC01F4
:1021E00084E08093AD011092AF011092AE0181E0C6
:1021F0008093B0018CEA91E00895FC018485958577
:1022000097FD0BC09FB7F89482E08093E90080911E
:10221000F2009FBF90E0019608959FB7F89482E086
:102220008093E9008091F2009FBF90E00895409173
:10223000BF015091C0012091BD013091BE014217F4
:102240005307B4F49091E8009570E1F39091E800A1
:1022500092FD19C08093F1008091BF019091C0015F
:1022600001968F739927892B19F48EEF8093E800DC
:102270008091BF019091C00101969093C00180931D
:10228000BF0181E0089580E00895CF92DF92EF9240
:10229000FF920F931F93CF93DF931F92CDB7DEB7BB
:1022A000182F062FE42E862F880F8E5F99830E94A9
:1022B000171183E00E941711F12EC12E9981D92E9A
:1022C0008C2D8F19801798F4F601E7FE02C08491D7
:1022D00001C080810E941711182F80E00E94171101
:1022E0008123FFEFCF1ADF0A8111EACF01C081E01D
:1022F0000F90DF91CF911F910F91FF90EF90DF90A2
:10230000CF900895DF92EF92FF920F931F93CF9398
:10231000DF93D82E8A017B01E40EF51EEB01CE156A
:10232000DF0571F0D7FE03C0FE01849101C08881F2
:102330000E94171121968111F2CF8FEF9FEF01C0FC
:10234000C801DF91CF911F910F91FF90EF90DF9027
:102350000895615030F02091F100FC012083019636
:10236000F8CF289884E68093A30108950F931F93D4
:10237000CF93DF931F92CDB7DEB78C01FC0184852C
:10238000958597FF0EC0CE0101960E94BF10019760
:1023900019F4298130E002C02FEF3FEFF8013587B3
:1023A0002487F801848595850F90DF91CF911F9147
:1023B0000F910895CF93DF931F92CDB7DEB7FC0145
:1023C0008485958597FD05C02FEF3FEF35872487DE
:1023D0000BC0CE0101960E94BF10019719F48981AC
:1023E00090E002C08FEF9FEF0F90DF91CF910895A3
:1023F0000F931F93CF93DF931F92CDB7DEB782E089
:10240000898342E450E06BE17AE080E80E94821127
:102410000E94E910DC0112960D911C911397011591
:10242000110569F0D801ED91FC910280F381E02D56
:10243000BE016F5F7F4FC801099597FF07C0898173
:102440000F90DF91CF911F910F910895F8010085B2
:102450001185E5CF1F920F920FB60F9211248F9323
:102460009F938091E1009091E100937F9093E10030
:1024700083FF0FC01092E90091E09093EB0010925F
:10248000EC0092E39093ED001092A40198E09093F9
:10249000F00082FF20C093E09093E9009091F20059
:1024A000992319F09AE39093E8009091A101992360
:1024B00039F09091A10191509093A101992389F154
:1024C0009091A301992339F09091A3019150909399
:1024D000A301992341F184FF10C08091E2008E7E18
:1024E00081608093E2008091E1008F7E8093E10023
:1024F0008091A2018E7E806111C080FF16C0809104
:10250000E2008E7E80618093E2008091E1008E7E09
:102510008093E1008091A2018E7E81608093A20170
:1025200004C05D9ACDCF289AD6CF9F918F910F90FE
:102530000FBE0F901F9018951F920F920FB60F921B
:102540001124CF92DF92EF92FF920F931F932F935C
:102550003F934F935F936F937F938F939F93AF932B
:10256000BF93EF93FF93CF93DF93CDB7DEB76C9715
:10257000DEBFCDBF1092E9008091E80083FFFAC171
:1025800068E0CE0145960E94A91182EF8093E80091
:102590008D8987FF05C09091E80090FFFCCF03C0B4
:1025A0009EEF9093E800982F907609F0C6C09E8920
:1025B0002F89188D91110CC0803829F48091BB01AE
:1025C0008093F10002C01092F1001092F10047C117
:1025D000422F50E0512B913051F4811140C14130D4
:1025E000510509F03CC18091BB018D7F0BC0933038
:1025F00061F4811134C14130510509F030C180913D
:10260000BB0182608093BB012AC1953041F4809167
:10261000E80080FFFCCF20682093E30020C19630C3
:1026200009F05FC0EB8CFC8C1092E9001092C001A5
:102630001092BF01123091F51092BE011092BD01AF
:102640000E94F81199E0BE016F5F7F4FDB01E92F17
:102650001D92EA95E9F799831A8391E09E8390EAA7
:1026600098879AEF99872091BF013091C001275F29
:102670003F4F3C832B838D831092E9001092C00161
:102680001092BF01F092BE01E092BD0149E050E01E
:1026900080E00E9482110E94F811E1C0F092BE0118
:1026A000E092BD010E94E910DC011296ED90FC90D1
:1026B0001397E114F10409F4C0C0D701ED91FC9126
:1026C0000480F581E02DBE016B5E7F4FC701099547
:1026D000009719F00CF0C3C0C6C0F701E084F18484
:1026E000E8CF973009F4BFC0983021F481E080939F
:1026F000F100B5C0993009F0B2C0837009F0B3C0E1
:10270000E5E1F1E081E021E036E39081992361F099
:102710008093E9002093EB0091919093EC0030932B
:10272000ED008F5F873089F78EE78093EA00109283
:10273000EA008F898093A40192C08B8D9C8D1092AA
:10274000E9001092C0011092BF019093BE018093E6
:10275000BD01898D811156C08E899D89913A59F4A8
:10276000813209F080C047E050E060E071E080E035
:102770000E94821174C0913209F075C0833289F4CD
:10278000888D90E0982F88272F89822BA0E0B0E0D9
:102790008093080190930901A0930A01B0930B0163
:1027A0005EC0803269F48091E80082FFFCCF67E070
:1027B00080E091E00E94A9118BEF8093E80006C0B1
:1027C000823209F04CC08F89809307018091BA0151
:1027D000882319F0EEEFFAE002C0E0E0F8E0809123
:1027E000000190910101A0910201B0910301803B91
:1027F0009440A105B10509F088C08091070180FFD0
:10280000A0C083C00E94E910DC0112960D911C91BA
:1028100013970115110539F1D801ED91FC91019043
:10282000F081E02DBE016B5E7F4FC80109958111DB
:1028300016C0F80100851185ECCF1130C1F01330BE
:1028400091F48F89882309F455C08230E9F440E877
:1028500067E08DE69AE00E944511882321F08EEF13
:102860008093E80087C081E28093EB0083C08B8D6A
:102870009C8D089711F41093BC018091BC018111CB
:1028800036C065E77AE038C0813029F440E86BE073
:1028900081E69AE0E0CF833031F70E94E910DC0155
:1028A0001296ED90FC9013978E010F5F1F4F6801F9
:1028B000E114F10479F0D701ED91FC910680F781E4
:1028C000E02DB801C7010995080F111DF701E0843B
:1028D000F184EECFD8011C92F60101900020E9F7B7
:1028E0003197BF016C197D0940E0C601B4CF67E89C
:1028F0007AE002C06DE57AE06115710509F4B3CFA5
:10290000FB01449150E080E833CF0FB6F894A895CE
:1029100080916000886180936000109260000FBE1B
:10292000A895EE3F2AE0F20739F08091FE0A9091D7
:10293000FF0A9183808393CF1092FF0A1092FE0AC0
:102940008ECFEE3F8AE0F80731F08081918190933D
:10295000FF0A8093FE0A87E797E7918380839BE0D5
:1029600088E10FB6F894A895809360000FBE90930D
:10297000600075CF6C960FB6F894DEBF0FBECDBF6A
:10298000DF91CF91FF91EF91BF91AF919F918F9187
:102990007F916F915F914F913F912F911F910F9177
:1029A000FF90EF90DF90CF900F900FBE0F901F9091
:1029B0001895CF93DF9300D01F92CDB7DEB77894F0
:1029C00084B5826084BD84B5816084BD85B5826034
:1029D00085BD85B5816085BD80916E0081608093E5
:1029E0006E0010928100809181008260809381004E
:1029F000809181008160809381008091800081605E
:102A000080938000809191008260809391008091FA
:102A1000910081608093910080919000816080930B
:102A200090008091C10084608093C1008091C100BA
:102A300082608093C1008091C10081608093C10059
:102A40008091C30081608093C3008091C000826048
:102A50008093C0008091C20081608093C200809109
:102A60007A00846080937A0080917A0082608093FB
:102A70007A0080917A00816080937A0080917A0058
:102A8000806880937A001092A4011092BB0110928A
:102A9000A2018091D70081608093D70080EA809363
:102AA000D80089B5806189BD89B5826089BD09B4C6
:102AB00000FEFDCF61E070E080E090E00E94290818
:102AC0008091D8008F7C80618093D8008091E00055
:102AD000807F8093E0008091E1008E7E8093E10012
:102AE0008DE08093E200559A209AEEEFFFE7859102
:102AF00094918B3F9C4D19F481E08093BA011FB7EC
:102B0000F89480918701811127C0EBE0FAE084916D
:102B1000EEEDF9E09491E82FF0E0EE0FFF1FE8569C
:102B2000FE4FA591B491EC91E92321F461E081E19C
:102B30000E94CD0661E081E10E9430078CB5806182
:102B40008CBD8CB580648CBD61E08FE00E94300745
:102B500061E080E10E943007809187018F5F809360
:102B600087011FBF03EB11E0F80184910E5F1F4F37
:102B700031966491882319F00E943007F5CF61E007
:102B800086E00E94CD0661E070E080E090E00E9467
:102B9000290860E086E00E94CD066AE070E080E0EF
:102BA00090E00E94290861E086E00E94CD06E6E000
:102BB000FAE0E491F0E0EE0FFF1FE451F64F85914B
:102BC000949190938D0180938C01E9EDF9E0E4916B
:102BD000E0938B01EEEFF9E0E491F0E0EE0FFF1FE0
:102BE000E451F64F8591949190938A0180938901E5
:102BF000E1EDF9E0E491E09388018CB58C7F8CBD28
:102C00008DB581608DBDE0918C01F0918D01908139
:102C100080918B01982B9083A0918901B0918A01BA
:102C20002C9190918801909592239C93908180950E
:102C300089238083E6EAF1E021E0E33BF20749F0F3
:102C400084918EBD00000DB407FEFDCF8EB5319688
:102C5000F3CFE0918901F0918A0190818091880100
:102C6000892B8083E0918C01F0918D01908180917E
:102C70008B0180958923808380916400816080939B
:102C8000640080916400826080936400809164009D
:102C90008068809364008091640080648093640005
:102CA000809165008160809365000E94AD0887FF78
:102CB0001AC080E094E01EBC00000DB407FEFDCFFA
:102CC0002EB50197C1F760E070E08AE00E946C07C2
:102CD00060E070E08BE00E946C0760E070E089E0EB
:102CE0000E946C07FFCF6EEEC62EDD24DA9418E149
:102CF000EE24EA94F12C812F8C19B701681B71091D
:102D00008AE00E946C076FEF70E08BE00E946C0716
:102D10006FEF70E089E00E946C070E94FC0E00E1FA
:102D200028E548EE50E0B60184E190E00E944C0FA7
:102D300082EE93E00E94CA086BE170E080E090E0D0
:102D40000E94290830EFC31206C06AEF70E080E0ED
:102D500090E00E9429086FEFC61AD60A79E1C716DB
:102D6000D10449F66EEE72E080E090E00E942908FE
:102D70006FEF70E08AE00E946C076FEF70E08BE00D
:102D80000E946C076FEF70E089E00E946C0785E09D
:102D90000E9447108DE00E9447101092800182E04F
:102DA00090E00E948F1E882369F080916400877FE5
:102DB0008093640080916500877F8093650081E047
:102DC00080938601809164008E7F8093640087ECFD
:102DD00080937C0080E280937B0062E070E080E082
:102DE00090E00E94290880917A00806480937A00A4
:102DF00080917A0086FDFCCFE0907800F090790019
:102E0000E094F0948EE580937C0062E070E080E0D6
:102E100090E00E94290880917A00806480937A0073
:102E200080917A0086FDFCCF0091780010917900A6
:102E30000E9404089B01AC01209530954095509567
:102E4000009510950E9DD0010F9DB00D1E9DB00DEB
:102E500011240E94C41E6B017C010E9404086C0DA9
:102E60007D1D8E1D9F1D611571058105910511F058
:102E70000E94861E809164008160809364008EE1D0
:102E80008093D40381E28093D70358EFE52EFF248B
:102E9000FA9406E110E00E94FC0E1093E307009301
:102EA000E207F092E507E092E40783E391E00E94F5
:102EB000FA0E64E170E080E090E00E94290882EE62
:102EC00093E00E94CA0882E0E80EF11C9CE1E9163A
:102ED000F10409F768EE73E080E090E00E942908B1
:102EE0000E94740D48E1E42EF12C0CE010E00E94E9
:102EF000231E837099276C010E94231E83709927DB
:102F0000DC01A45EB74F8C91F601E45EF74F90812F
:102F10009C9380830E94231EB8010E94B81D6C01FF
:102F20000E94231EB8010E94B81DDC01A05FB74FAC
:102F30008C91F601E05FF74F90819C9380830E9413
:102F4000231E877099276C010E94231E8770992782
:102F5000DC01A85FB74F8C91F601E85FF74F9081D5
:102F60009C9380830E94231E877099276C010E9486
:102F7000231E87709927DC01A050B84F8C91F60171
:102F8000E050F84F90819C938083E1E0EE1AF108C5
:102F900009F0ADCF6CEB72E080E090E00E94420C53
:102FA0006B017C016093C4017093C5018093C601DD
:102FB0009093C70164EC72E080E090E00E94420CC4
:102FC0006093C8017093C9018093CA019093CB01AB
:102FD000CF20CE20CD20C09429F06F3F7F4F8F4F60
:102FE0009F4F91F41092C4011092C5011092C60136
:102FF0001092C7011092C8011092C9011092CA0123
:103000001092CB010E94900D88248394912C86ED20
:1030100091E038E0332E380E83E1A82EB12C9CE1EC
:10302000E92EF12C2FB7F8948091810190918201C3
:10303000A0918301B09184012FBF2091E00322234E
:1030400091F02091D803382F321B3093E103209167
:10305000D5033091D6032F5F3F4F3093D603209393
:10306000D5031092E0034091DC035091DD036091A1
:10307000DE037091DF0384179507A607B7077CF47A
:10308000481B423008F488C383B7817F83BF83B76E
:10309000816083BF889583B78E7F83BF7DC3209176
:1030A000D703AC01BD01420F511D611D711D40933D
:1030B000DC035093DD036093DE037093DF038093A2
:1030C000D8039093D903A093DA03B093DB0381E094
:1030D0008093E003809185018F5F8E3118F4809397
:1030E000850102C0109285010E94FC0E2091CC0146
:1030F000822F86958695877090E08230910509F43D
:1031000097C234F4009741F0019709F477C040C3A7
:1031100006970CF4B2C23CC30E94B50A803149F054
:10312000803839F0883051F51092CD01E6EDF1E0AC
:1031300007C08091CC01982F909590FB80F91CC01E
:10314000DF0118971C9211923E12FACF0E94740D63
:103150008091C10180788B618F778093C10188E075
:103160008093C2018091C301807C82608093C301FF
:103170008091CC01817E86608093CC011092E30720
:103180001092E2071092E5071092E40782E491E0C2
:103190000E94FA0E01E310E01093E3070093E207A8
:1031A00088E190E09093E5078093E4078BE491E059
:1031B0000E94FA0E1093E3070093E20780E290E08A
:1031C0009093E5078093E40781E591E00E94FA0E71
:1031D0008091CC0180FF03C088E190E002C080E2D2
:1031E00090E02AE230E03093E3072093E2079093E7
:1031F000E5078093E40787E591E0C8C221FB8827B3
:1032000080F9217082136EC00E94B50A8031D9F115
:1032100038F4843009F45FC0883009F44BC005C22B
:10322000803431F08038E9F0803209F0FEC10AC004
:103230009091C101892F8770987F873061F18F5FEE
:10324000877034C02091C101822F877021F42760DC
:103250002093C101EAC1895F982F9770822F887FE0
:1032600025C08091C101982F987311F488631FC005
:10327000982F969596959695995F9770990F990FB7
:10328000990F877C13C08091C101282F2873982F34
:10329000977C283319F49093C101C7C18695869510
:1032A00086958F5F8770880F880F880F892B809392
:1032B000C101BBC16091C101462F46954695469517
:1032C0004770677021E08EEC91E00E94A60D882384
:1032D00009F4ABC144C18091CC01837E88608093A6
:1032E000CC01A3C100E010E0F801E45EF74F60817B
:1032F000462F4695469546954770677021E08EECBF
:1033000091E00E94A60D81112AC10F5F1F4F04306A
:10331000110551F700E010E0F801E05FF74F608120
:10332000462F4695469546954770677021E08EEC8E
:1033300091E00E94A60D811112C10F5F1F4F0C304A
:10334000110551F700E010E0F801E85FF74F6081E8
:10335000462F4695469546954770677021E08EEC5E
:1033600091E00E94A60D8111FAC00F5F1F4F083037
:10337000110551F700E010E0F801E050F84F6081CE
:10338000462F4695469546954770677021E08EEC2E
:1033900091E00E94A60D8111E2C00F5F1F4F08301F
:1033A000110551F7C12CD12C86010851184FF80195
:1033B0006081462F4695469546954770677020E098
:1033C0008EEC91E00E94A60D882309F497C0F801C5
:1033D0003081132F1770369536953695377080915A
:1033E000CC018270898387E0810F87707724739482
:1033F000863008F0712C672C610E87E0830F877090
:1034000001E0863008F000E0202E230E20E0422D5F
:10341000662D8EEC91E02B833A830E943E0B2C01AB
:103420002B813A817981711103C082E090E002C062
:1034300081E090E04816590611F421600FC02B83FB
:103440003A830E94860D2B813A814816590611F461
:10345000226004C0452811F424600BC088E068167F
:1034600041F0670C822D800F97E0921510F0282E06
:10347000CECF612E6718232E201A422D662D8EEC9A
:1034800091E02B833A830E943E0B2C012B813A81E1
:103490007981711103C082E090E002C081E090E088
:1034A0004816590611F420610FC02B833A830E94FD
:1034B000860D2B813A814816590611F4206204C00A
:1034C000452811F420640BC087E0861540F067188A
:1034D000822D801B97E0921510F0282ECECF822FE0
:1034E0008174813419F02471243141F421E0432F97
:1034F000612F8EEC91E00E94A60D31C0EFEFCE1A45
:10350000DE0AF8E1CF16D10409F04ECF00E010E05A
:10351000F801E050F84F6081462F46954695469554
:103520004770677021E08EEC91E00E94A60D81113A
:1035300016C00F5F1F4F0430110551F700E010E077
:1035400021E0412F602F8EEC91E00E94A60D8111A9
:1035500006C01F5F1830A1F70F5F083081F78EECAF
:1035600091E00E94A30E882309F45FC08091CC01F2
:10357000E091C3012091C2014091C8015091C9015D
:103580006091CA017091CB0180FF32C0EF73F0E00F
:103590002695269530E02E173F0724F5837E8C6014
:1035A0008093CC014F5F5F4F6F4F7F4F4093C801B7
:1035B0005093C9016093CA017093CB018091C401FB
:1035C0009091C501A091C601B091C7010196A11DBE
:1035D000B11D8093C4019093C501A093C601B0931F
:1035E000C70121C0E217F30774F4837E80610DC028
:1035F0002695269530E0EF73F0E0E217F30774F2BA
:103600002E173F0794F3837E84618093CC014F5F34
:103610005F4F6F4F7F4F4093C8015093C901609334
:10362000CA017093CB010E94900D0E945D0BB0C047
:103630000E94B50A803161F028F4843071F088303E
:1036400089F406C0803421F0803811F0803251F4C2
:103650008091CC01837E846003C08091CC01837E05
:103660008093CC01B092E307A092E207F092E507C5
:10367000E092E40789E591E089C00E94B50A8430B0
:1036800019F1883031F51092CD01E6EDF1E0DF015E
:1036900018971C9211923E12FACF0E94740D8091DD
:1036A000C10180788B618F778093C10188E080931E
:1036B000C2018091C301807C82608093C3018091AC
:1036C000CC01817E866003C08091CC01837E809393
:1036D000CC010E945D0B42E350E08AE190E0282F8C
:1036E000269526952695FA0130E8239FE00DF11DD9
:1036F0001124E253FC4F9C0127703327B40102C010
:10370000660F771F2A95E2F79B01209534892323C2
:10371000248B01968632910511F74F5F5F4F4E342F
:103720005105D9F68091CC0186958695877090E0F9
:103730008430910591F085309105E1F0039741F5D2
:1037400087E390E09093E3078093E207F092E50728
:10375000E092E40789E691E019C084E390E0909359
:10376000E3078093E207F092E507E092E4078DE635
:1037700091E00CC084E390E09093E3078093E2072C
:10378000F092E507E092E40782E791E00E94FA0EEA
:1037900082EE93E00E94CA0880E090E0892B09F451
:1037A00041CC0E94000038CC1092230810922208CD
:1037B00088EE93E0A0E0B0E0809324089093250881
:1037C000A0932608B09327088FE191E090932108F9
:1037D000809320088FEF9FEF90932D0880932C0803
:1037E0001092D1031092D0038FE291E09093CF0317
:1037F0008093CE038CE38093D40380E18093D7033E
:103800001092D6031092D5031092DC031092DD03C0
:103810001092DE031092DF031092E0031092E30790
:103820001092E2071092E5071092E40781E080937E
:10383000E60786ED91E0FC013897DC0111921D92BC
:10384000E817F907D9F7CF01409623E0863D9207A4
:1038500091F71092CD018091C10180788B618F77B3
:103860008093C10188E08093C2018091C301807C74
:1038700082608093C3011092C4011092C50110921E
:10388000C6011092C7011092C8011092C90110928E
:10389000CA011092CB018091CC01807E836080931D
:1038A000CC0180911C08807C80931C0880911D08AD
:1038B0008760877C80931D0880911E088F638093AA
:1038C0001E0880911F08887F886380931F0880915D
:1038D0001008807C82618093100880911108807CA0
:1038E00083618093110880911208807C84618093A9
:1038F000120880911308807C856180931308809161
:103900001408807C8D618093140880911508807C58
:1039100085628093150880911608807C8D62809363
:10392000160880911708807C8C628093170880911C
:103930001808807C8B628093180880911908807C1D
:103940008A628093190880911A08807C8262809331
:103950001A0880911B08807C8A6180931B088091E3
:103960000808807C8B608093080880910908807C1F
:103970008C608093090880910A08807C8E61809316
:103980000A0880910B08807C866280930B088091E6
:103990000C08807C846380930C0880910D08807CE7
:1039A000836380930D0880910E08807C81628093F0
:1039B0000E0880910F08807C896180930F088091A8
:1039C0000008807C8A608093000880910108807CD8
:1039D0008D608093010880910208807C86618093CD
:1039E000020880910308807C8E6280930308809196
:1039F0000408807C85638093040880910508807C9E
:103A000082638093050880910608807C8962809398
:103A1000060880910708807C816180930708809167
:103A2000E807807C81608093E8078091E907807CCB
:103A300082608093E9078091EA07807C83608093AD
:103A4000EA078091EB07807C84608093EB0780918C
:103A5000EC07807C85608093EC078091ED07807C8B
:103A600086608093ED078091EE07807C8F60809365
:103A7000EE078091EF07807C87618093EF0780914C
:103A8000F007807C8F618093F0078091F107807C44
:103A900087628093F1078091F207807C8F62809328
:103AA000F2078091F307807C87638093F30780910E
:103AB000F407887F8E638093F4078091F507887FF1
:103AC0008D638093F5078091F607887F8C638093E0
:103AD000F6078091F707887F8B638093F7078091C3
:103AE000F807887F8A638093F8078091F907887FB9
:103AF00089638093F9078091FA07807C80638093C3
:103B0000FA078091FB07807C88628093FB07809195
:103B1000FC07807C80628093FC078091FD07807C9D
:103B200088618093FD078091FE07807C806180938F
:103B3000FE078091FF07807C88608093FF0780915B
:103B40007008807C89608093700880917108807C07
:103B50008E608093710880917208807C8663809368
:103B6000720880917308807C816380937308089544
:103B7000AA1BBB1B51E107C0AA1FBB1FA617B70793
:103B800010F0A61BB70B881F991F5A95A9F78095AF
:103B90009095BC01CD010895EE0FFF1F0590F491A3
:103BA000E02D099481E090E0F8940C94081F8F9226
:103BB0009F92AF92BF92CF92DF92EF92FF92CF93FC
:103BC000DF93EC01688179818A819B8161157105A0
:103BD0008105910521F464E279ED8BE597E02DE113
:103BE00033EF41E050E00E94A51E49015A019B01BC
:103BF000AC01A7EAB1E40E94C41E6B017C01ACEEEB
:103C0000B4EFA50194010E94D21EDC01CB018C0D02
:103C10009D1DAE1DBF1DB7FF03C00197A109B04890
:103C200088839983AA83BB839F77DF91CF91FF908D
:103C3000EF90DF90CF90BF90AF909F908F900895BE
:103C40000E94D71D08958CE091E00E94D71D089531
:103C5000A0E0B0E080930C0190930D01A0930E01C1
:103C6000B0930F0108958F929F92AF92BF92CF921F
:103C7000DF92EF92FF92CF93DF93EC01688179811D
:103C80008A819B81611571058105910521F464E2AA
:103C900079ED8BE597E02DE133EF41E050E00E94B4
:103CA000A51E49015A019B01AC01A7EAB1E40E949B
:103CB000C41E6B017C01ACEEB4EFA50194010E941F
:103CC000D21EDC01CB018C0D9D1DAE1DBF1DB7FFAB
:103CD00003C00197A109B04888839983AA83BB8355
:103CE000BC01CD019F77DF91CF91FF90EF90DF90E6
:103CF000CF90BF90AF909F908F9008950E94331EF9
:103D0000089580E191E00E94331E089560931001B0
:103D10007093110180931201909313010895F99902
:103D2000FECF92BD81BDF89A992780B50895262FC0
:103D3000F999FECF1FBA92BD81BD20BD0FB6F89490
:103D4000FA9AF99A0FBE01960895052E97FB1EF474
:103D500000940E94BC1E57FD07D00E94D71E07FC8E
:103D600003D04EF40C94BC1E50954095309521958F
:103D70003F4F4F4F5F4F0895909580957095619597
:103D80007F4F8F4F9F4F08950E94F91EA59F900D62
:103D9000B49F900DA49F800D911D11240895B7FF2D
:103DA0000C94C41E0E94C41E821B930B0895A1E2B2
:103DB0001A2EAA1BBB1BFD010DC0AA1FBB1FEE1FA5
:103DC000FF1FA217B307E407F50720F0A21BB30BF0
:103DD000E40BF50B661F771F881F991F1A9469F76C
:103DE00060957095809590959B01AC01BD01CF01C8
:103DF0000895A29FB001B39FC001A39F700D811DC4
:103E00001124911DB29F700D811D1124911D0895E3
:043E1000F894FFCF54
:103E140000E1000000000000FFFFFFFF01000000C0
:103E24000100000000C1808100000000000000B516
:103E34000CE80CFD10DA11B611CB0C00000000A345
:103E4400057805506F636B6574204F7468656C6CFE
:103E54006F00506C61792061733A00424C41434BCE
:103E6400005748495445003E0050524553532042A0
:103E740020544F20455849540057494E004C4F5345
:103E840045004452415700574F4E0053554D0000D2
:00000001FF
