:100000000C94DC040C9404050C9404050C94040575
:100010000C9404050C9404050C9404050C9404053C
:100020000C9404050C9404050C9481060C94F306BE
:100030000C9404050C9404050C9404050C9404051C
:100040000C9404050C9404050C9404050C9404050C
:100050000C9404050C9404050C9404050C941A0BE0
:100060000C9404050C9404050C9404050C940405EC
:100070000C9404050C9404050C9404050C940405DC
:100080000C9404050C9404050C9404050C940405CC
:100090000C9404050C9404050C9404050C940405BC
:1000A0000C9404050C9404050C940405BB09BE09CA
:1000B000AD09B109B509DF09DF09DF09C209C609C0
:1000C000CA09D009D409DF09DA09F0F89C8E8783C0
:1000D000878E9CF8F00000FEFF0303030303070E66
:1000E000FCF80000FEFF0303030303070EFCF80007
:1000F00000FFFF00000000000000FFFF0000FEFF07
:100100008383838383C7EE7C380000F8FC0E0703EB
:100110000303070EFCF800003F7FE0C08080C0E0D2
:100120007F3FFFFF01010101010101FFFF0000FF0F
:10013000FF0C0C0C0C1C3E77E3C100007FFFC0C01D
:10014000C0C0C0E0703F1F00001F3F70E0C0C0C0D3
:10015000E0703F1F00007FFFC1C1C1C1C1E3773E16
:100160001C00001F3F70E0C0C0C0E0703F1F0000D7
:1001700000000001FFFF010000000000000024005B
:1001800027002A002D003000D5F08D14A1C881CFA2
:10019000D9F1AF2000040802011040804010204037
:1001A000804080080204018040201002011080106D
:1001B0002040402000000000250028002B002E00D9
:1001C00031000404040404030405020202020403CF
:1001D00002020202060606060606040402020204E1
:1001E000041402130212021502070208020A020A8C
:1001F000010B020B010902090104010C01060100B7
:100200000000000200090F0000030401000C0000C0
:1002100000000000000000000000000000000008D6
:100220000B000202020100090400000102020000AA
:1002300005240010010524010101042402060524FF
:100240000600010705810310004009040100020AAD
:10025000000000070502024000000705830240007D
:10026000000403090441726475696E6F204C4C43AD
:100270000041726475626F79001201000200000093
:10028000404123368000010102030112010002EF08
:1002900002014041233680000101020301003C427B
:1002A0004242423C000000182424180000000018BC
:1002B0003C3C18000000000000000000000090AA74
:1002C000BC80808080BEA4988080808098A4A48018
:1002D00080808098A4BE808080809CAA8C80808052
:1002E0008088BC8A80808080A4AA9480808080BE20
:1002F00088B08000000000003E000000FE41404049
:10030000404040FF404040404040FF40404040406F
:1003100040FF404040404040FF404040404040FFA0
:10032000404040404040FF404040404040FF40404F
:1003300040404041FE00009995120000FF2020201F
:10034000202020FF202020202020FF2020202020EF
:1003500020FF202020202020FF202020202020FF00
:10036000202020202020FF202020202020FF2020CF
:1003700020202020FF0000880AC50000FF10101078
:10038000101010FF101010101010FF10101010108F
:1003900010FF101010101010FF101010101010FF90
:1003A000101010101010FF101010101010FF10106F
:1003B00010101010FF0000E3A2270000FF0808083B
:1003C000080808FF080808080808FF0808080808BF
:1003D00008FF080808080808FF080808080808FFB8
:1003E000080808080808FF080808080808FF08089F
:1003F00008080808FF0000E252810000FF0404041E
:10040000040404FF040404040404FF0404040404B6
:1004100004FF040404040404FF040404040404FFAB
:10042000040404040404FF040404040404FF040496
:1004300004040404FF000008E9180000FF0202029F
:10044000020202FF020202020202FF020202020292
:1004500002FF020202020202FF020202020202FF85
:10046000020202020202FF020202020202FF020272
:1004700002020202FF000028542800003F4181814F
:10048000818181FF818181818181FF818181818160
:1004900081FF818181818181FF818181818181FFD2
:1004A000818181818181FF818181818181FF818140
:1004B000818181413F00000000003E5B4F5B3E3E7A
:1004C0006B4F6B3E1C3E7C3E1C183C7E3C181C5700
:1004D0007D571C1C5E7F5E1C00183C1800FFE7C3A4
:1004E000E7FF0018241800FFE7DBE7FF30483A0673
:1004F0000E2629792926407F050507407F05253FDF
:100500005A3CE73C5A7F3E1C1C08081C1C3E7F14CA
:10051000227F22145F5F005F5F06097F017F006614
:1005200089956A606060606094A2FFA29408047E6E
:10053000040810207E201008082A1C08081C2A081D
:10054000081E101010100C1E0C1E0C30383E3830D7
:10055000060E3E0E06000000000000005F000000D6
:1005600007000700147F147F14242A7F2A12231304
:1005700008646236495620500008070300001C2218
:1005800041000041221C002A1C7F1C2A08083E084A
:10059000080080703000080808080800006060004B
:1005A00020100804023E5149453E00427F4000723F
:1005B000494949462141494D331814127F102745B6
:1005C0004545393C4A4949314121110907364949D4
:1005D0004936464949291E000014000000403400F5
:1005E00000000814224114141414140041221408A9
:1005F00002015909063E415D594E7C1211127C7F61
:10060000494949363E414141227F4141413E7F496E
:100610004949417F090909013E414151737F080859
:10062000087F00417F41002040413F017F081422A4
:10063000417F404040407F021C027F7F0408107FC2
:100640003E4141413E7F090909063E4151215E7FFD
:1006500009192946264949493203017F01033F40D0
:1006600040403F1F2040201F3F4038403F63140858
:10067000146303047804036159494D43007F4141E9
:10068000410204081020004141417F04020102049C
:100690004040404040000307080020545478407F09
:1006A000284444383844444428384444287F385443
:1006B00054541800087E090218A4A49C787F0804EA
:1006C000047800447D40002040403D007F102844D5
:1006D0000000417F40007C047804787C08040478A2
:1006E0003844444438FC1824241818242418FC7C6A
:1006F00008040408485454542404043F44243C404F
:1007000040207C1C2040201C3C4030403C442810B1
:1007100028444C9090907C4464544C4400083641EA
:1007200000000077000000413608000201020402C8
:100730003C2623263C1EA1A161123A4040207A3873
:1007400054545559215555794121545478412155D6
:1007500054784020545579400C1E52721239555528
:100760005559395454545939555454580000457CFE
:10077000410002457D420001457C40F0292429F0DA
:10078000F0282528F07C545545002054547C547C96
:100790000A097F4932494949323248484832324A87
:1007A0004848303A4141217A3A42402078009DA0A1
:1007B000A07D39444444393D4040403D3C24FF2421
:1007C00024487E4943662B2FFC2F2BFF0929F62056
:1007D000C0887E090320545479410000447D413093
:1007E00048484A32384040227A007A0A0A727D0D1F
:1007F00019317D2629292F28262929292630484DD7
:100800004020380808080808080808382F10C8AC25
:10081000BA2F102834FA00007B000008142A142292
:1008200022142A14089500220095AA005500AAAAAD
:1008300055AA55AA000000FF00101010FF00141464
:1008400014FF001010FF00FF1010F010F01414142B
:10085000FC001414F700FF0000FF00FF1414F40460
:10086000FC141417101F10101F101F1414141F0055
:10087000101010F0000000001F101010101F1010BA
:100880001010F010000000FF1010101010101010C9
:1008900010FF10000000FF140000FF00FF00001F09
:1008A00010170000FC04F414141710171414F404A7
:1008B000F40000FF00F714141414141414F700F7D4
:1008C000141414171410101F101F141414F41410FF
:1008D00010F010F000001F101F0000001F14000097
:1008E00000FC140000F010F01010FF10FF1414149E
:1008F000FF141010101F00000000F010FFFFFFFF9A
:10090000FFF0F0F0F0F0FFFFFF0000000000FFFF3D
:100910000F0F0F0F0F38444438447C2A2A3E147EB0
:1009200002020606027E027E026355494163384494
:10093000443C04407E201E2006027E020299A5E768
:10094000A5991C2A492A1C4C7201724C304A4D4D03
:10095000303048784830BC625A463D3E49494900EB
:100960007E0101017E2A2A2A2A2A44445F44444007
:10097000514A444040444A51400000FF0103E08096
:10098000FF000008086B6B083612362436060F0984
:100990000F06000018180000001010003040FF0182
:1009A00001001F01011E00191D1712003C3C3C3CB8
:1009B000000000000000281C11241FBECFEFDAE069
:1009C000DEBFCDBF26E0A4E9B1E001C01D92A5388D
:1009D000B207E1F711E0A0E0B1E0EAEEFEE302C009
:1009E00005900D92A439B107D9F714E0CCEDD4E00D
:1009F00004C02197FE010E94371ECB3DD107C9F7E5
:100A00000E94B8140C94731F0C9400004091AC0128
:100A10005091AD012091AA013091AB0142175307CB
:100A2000B4F49091E8009570E1F39091E80092FDA4
:100A300019C08093F1008091AC019091AD010196B5
:100A40008F739927892B19F48EEF8093E80080919A
:100A5000AC019091AD0101969093AD018093AC01F2
:100A600081E0089580E00895CF92DF92EF92FF92A7
:100A70000F931F93CF93DF931F92CDB7DEB7182F3D
:100A8000062FE42E862F880F8E5F99830E9406051D
:100A900083E00E940605F12EC12E9981D92E8C2D5E
:100AA0008F19801798F4F601E7FE02C0849101C007
:100AB00080810E940605182F80E00E940605812390
:100AC000FFEFCF1ADF0A8111EACF01C081E00F905A
:100AD000DF91CF911F910F91FF90EF90DF90CF901A
:100AE0000895DF92EF92FF920F931F93CF93DF93BE
:100AF000D82E8A017B01E40EF51EEB01CE15DF0531
:100B000071F0D7FE03C0FE01849101C088810E946C
:100B1000060521968111F2CF8FEF9FEF01C0C8012A
:100B2000DF91CF911F910F91FF90EF90DF9008958B
:100B3000615030F02091F100FC0120830196F8CF44
:100B4000289884E68093AF010895CF92DF92EF92C8
:100B5000FF920F931F93CF93DF936C017A018B0168
:100B6000C0E0D0E0CE15DF0589F0D8016D918D0190
:100B7000D601ED91FC910190F081E02DC60109951F
:100B8000892B11F47E0102C02196ECCFC701DF91C1
:100B9000CF911F910F91FF90EF90DF90CF9008952C
:100BA000CF93DF931F92CDB7DEB76983DC01ED9160
:100BB000FC910280F381E02D41E050E0BE016F5FC7
:100BC0007F4F09950F90DF91CF91089583E0809337
:100BD000E9008091F200882319F08AE38093E8000D
:100BE0000895FC018485958597FD0BC09FB7F89407
:100BF00082E08093E9008091F2009FBF90E001962F
:100C000008959FB7F89482E08093E9008091F20004
:100C10009FBF90E008950E943D1E0F931F93CF93B6
:100C2000DF931F92CDB7DEB782E0898342E450E0C4
:100C30006FE172E080E80E9471050E94A414DC015B
:100C400012960D911C9113970115110569F0D801A9
:100C5000ED91FC910280F381E02DBE016F5F7F4F2B
:100C6000C801099597FF07C089810F90DF91CF9147
:100C70001F910F910895F80100851185E5CF0F931D
:100C80001F93CF93DF931F92CDB7DEB78C01FC018A
:100C90008485958597FF0EC0CE0101960E947A1437
:100CA000019719F4298130E002C02FEF3FEFF801DE
:100CB00035872487F801848595850F90DF91CF9142
:100CC0001F910F910895CF93DF931F92CDB7DEB799
:100CD000FC018485958597FD05C02FEF3FEF358793
:100CE00024870BC0CE0101960E947A14019719F453
:100CF000898190E002C08FEF9FEF0F90DF91CF913D
:100D000008951F920F920FB60F9211248F939F9305
:100D10008091E1009091E100937F9093E10083FF47
:100D20000FC01092E90091E09093EB001092EC005C
:100D300092E39093ED001092B00198E09093F00050
:100D400082FF20C093E09093E9009091F2009923F4
:100D500019F09AE39093E8009091AE01992339F04D
:100D60009091AE0191509093AE01992389F19091A9
:100D7000AF01992339F09091AF0191509093AF0159
:100D8000992341F184FF10C08091E2008E7E816042
:100D90008093E2008091E1008F7E8093E10080915A
:100DA00095018E7E806111C080FF16C08091E200A7
:100DB0008E7E80618093E2008091E1008E7E809340
:100DC000E100809195018E7E81608093950104C041
:100DD0005D9ACDCF289AD6CF9F918F910F900FBE5D
:100DE0000F901F9018951F920F920FB60F9211241B
:100DF000CF92DF92EF92FF920F931F932F933F9327
:100E00004F935F936F937F938F939F93AF93BF9312
:100E1000EF93FF93CF93DF93CDB7DEB76C97DEBF31
:100E2000CDBF1092E9008091E80083FFFAC168E02D
:100E3000CE0145960E94980582EF8093E8008D8947
:100E400087FF05C09091E80090FFFCCF03C09EEFA4
:100E50009093E800982F907609F0C6C09E892F895C
:100E6000188D91110CC0803829F4809196018093DF
:100E7000F10002C01092F1001092F10047C1422F20
:100E800050E0512B913051F4811140C14130510556
:100E900009F03CC1809196018D7F0BC0933061F4C5
:100EA000811134C14130510509F030C18091960162
:100EB0008260809396012AC1953041F48091E800C8
:100EC00080FFFCCF20682093E30020C1963009F01A
:100ED0005FC0EB8CFC8C1092E9001092AD01109277
:100EE000AC01123091F51092AB011092AA010E9450
:100EF0000D0699E0BE016F5F7F4FDB01E92F1D9268
:100F0000EA95E9F799831A8391E09E8390EA98879E
:100F10009AEF99872091AC013091AD01275F3F4F47
:100F20003C832B838D831092E9001092AD011092C7
:100F3000AC01F092AB01E092AA0149E050E080E000
:100F40000E9471050E940D06E1C0F092AB01E09293
:100F5000AA010E94A414DC011296ED90FC90139754
:100F6000E114F10409F4C0C0D701ED91FC910480B3
:100F7000F581E02DBE016B5E7F4FC701099500979B
:100F800019F00CF0C3C0C6C0F701E084F184E8CFCB
:100F9000973009F4BFC0983021F481E08093F100CC
:100FA000B5C0993009F0B2C0837009F0B3C0E5E173
:100FB000F1E081E021E036E39081992361F08093B4
:100FC000E9002093EB0091919093EC003093ED00B9
:100FD0008F5F873089F78EE78093EA001092EA00EE
:100FE0008F898093B00192C08B8D9C8D1092E90007
:100FF0001092AD011092AC019093AB018093AA01C5
:10100000898D811156C08E899D89913A59F481321A
:1010100009F080C047E050E064E071E080E00E94A9
:10102000710574C0913209F075C0833289F4888DDE
:1010300090E0982F88272F89822BA0E0B0E0809342
:10104000000190930101A0930201B09303015EC0DF
:10105000803269F48091E80082FFFCCF67E084E091
:1010600091E00E9498058BEF8093E80006C08232E1
:1010700009F04CC08F8980930B01809194018823E3
:1010800019F0EEEFFAE002C0E0E0F8E08091040130
:1010900090910501A0910601B0910701803B944019
:1010A000A105B10509F088C080910B0180FFA0C0A7
:1010B00083C00E94A414DC0112960D911C91139719
:1010C0000115110539F1D801ED91FC910190F081E4
:1010D000E02DBE016B5E7F4FC8010995811116C0DE
:1010E000F80100851185ECCF1130C1F0133091F477
:1010F0008F89882309F455C08230E9F440E867E01D
:1011000081E792E00E943405882321F08EEF8093DE
:10111000E80087C081E28093EB0083C08B8D9C8DBB
:10112000089711F41093A9018091A901811136C08B
:1011300069E772E038C0813029F440E86BE085E669
:1011400092E0E0CF833031F70E94A414DC011296C4
:10115000ED90FC9013978E010F5F1F4F6801E11413
:10116000F10479F0D701ED91FC910680F781E02D33
:10117000B801C7010995080F111DF701E084F1843A
:10118000EECFD8011C92F60101900020E9F73197CB
:10119000BF016C197D0940E0C601B4CF6BE872E075
:1011A00002C061E672E06115710509F4B3CFFB017D
:1011B000449150E080E833CF0FB6F894A895809121
:1011C0006000886180936000109260000FBEA89557
:1011D000EE3F2AE0F20739F08091FE0A9091FF0A73
:1011E0009183808393CF1092FF0A1092FE0A8ECFD4
:1011F000EE3F8AE0F80731F0808191819093FF0AF9
:101200008093FE0A87E797E7918380839BE088E1DC
:101210000FB6F894A895809360000FBE909360007D
:1012200075CF6C960FB6F894DEBF0FBECDBFDF91C1
:10123000CF91FF91EF91BF91AF919F918F917F914E
:101240006F915F914F913F912F911F910F91FF905F
:10125000EF90DF90CF900F900FBE0F901F901895DA
:101260006115710579F0FB0101900020E9F73197D4
:10127000AF01461B570BDC01ED91FC910280F3811D
:10128000E02D099480E090E008954F925F926F9274
:101290007F92EF92FF920F931F93CF93DF93CDB77F
:1012A000DEB7A1970FB6F894DEBF0FBECDBF7C01AD
:1012B000FA01CB0119A2223008F42AE08E010F5D59
:1012C0001F4F422E512C612C712CBF01A3019201A2
:1012D0000E94421FF901CA01015011096A3014F439
:1012E000605D01C0695CD8016C93232B242B252BF6
:1012F00061F7B801C7010E943009A1960FB6F894B2
:10130000DEBF0FBECDBFDF91CF911F910F91FF9038
:10131000EF907F906F905F904F9008950C943009FC
:10132000362F90E0FC01E050FE4F4491FC01EB565B
:10133000FE4F2491FC01EE53FE4F8491882309F463
:1013400051C04423E1F150E0FA013197EF30F1054B
:10135000B0F5EA5AFF4F0C94371E909180009F77AA
:1013600007C0909180009F7D03C090918000977F7F
:101370009093800024C094B59F7702C094B59F7D60
:1013800094BD1DC0909190009F7707C090919000F0
:101390009F7D03C090919000977F909390000FC025
:1013A0009091C0009F7703C09091C0009F7D909363
:1013B000C00005C09091C200977F9093C200E82FB3
:1013C000F0E0EE0FFF1FEC54FE4FA591B4918FB7E4
:1013D000F894EC91311103C020952E2301C02E2BDF
:1013E0002C938FBF0895CF93DF9390E0FC01EB56D1
:1013F000FE4F2491FC01EE53FE4F8491882361F14E
:1014000090E0880F991FFC01E658FE4FC591D491DA
:10141000FC01EC54FE4FA591B491611109C09FB736
:10142000F8948881209582238883EC912E230BC029
:10143000623061F49FB7F8943881822F80958323BE
:101440008883EC912E2B2C939FBF06C08FB7F89406
:10145000E8812E2B28838FBFDF91CF9108953FB76E
:10146000F8948091A5019091A601A091A701B09157
:10147000A80126B5A89B05C02F3F19F00196A11D14
:10148000B11D3FBFBA2FA92F982F8827820F911D1A
:10149000A11DB11DBC01CD0142E0660F771F881F61
:1014A000991F4A95D1F708958F929F92AF92BF925C
:1014B000CF92DF92EF92FF926B017C010E942F0A84
:1014C0004B015C01C114D104E104F104F1F00E946C
:1014D0002F0ADC01CB0188199909AA09BB09883EAA
:1014E0009340A105B10570F321E0C21AD108E108CB
:1014F000F10888EE880E83E0981EA11CB11CC1146F
:10150000D104E104F10419F7DDCFFF90EF90DF90F3
:10151000CF90BF90AF909F908F9008958F929F92A1
:10152000AF92BF92CF92DF92EF92FF920F931F93F1
:10153000CF93DF935C016B018A0180910B018823BB
:1015400009F45EC08091B001882309F459C08091EC
:10155000950180FF05C08091E00082608093E000EB
:10156000E8018AEFF82E93E0E92E2FE3822E3AE38A
:10157000932E209709F43DC08FB7F894E092E900CC
:101580009091E80095FF06C09091F200282D291B4C
:10159000922F01C090E08FBF91110AC0FA94FF20F2
:1015A00079F161E070E080E090E00E94540AE1CFC0
:1015B000292F30E0C217D3070CF49C2F8FB7F89473
:1015C000E092E9002091E80025FF11C0292F30E0CA
:1015D000C21BD30BF601915020F041914093F100D2
:1015E000FACFC20ED31E9091E80095FF13C08FBFB3
:1015F000C0CF5D9884E68093AE011016110644F0CA
:1016000081E090E0F5019383828380E090E005C063
:10161000C80103C09092E800EACFDF91CF911F91FB
:101620000F91FF90EF90DF90CF90BF90AF909F9081
:101630008F9008951F920F920FB60F9211242F933F
:101640003F938F939F93AF93BF9380919D01909110
:101650009E01A0919F01B091A0013091A40123E0CF
:10166000230F2D3720F40196A11DB11D05C026E8DA
:10167000230F0296A11DB11D2093A40180939D010B
:1016800090939E01A0939F01B093A0018091A5012A
:101690009091A601A091A701B091A8010196A11D6A
:1016A000B11D8093A5019093A601A093A701B093CB
:1016B000A801BF91AF919F918F913F912F910F9072
:1016C0000FBE0F901F9018958FB12CB193B130E0E1
:1016D0002095309520743327A90123E0559547952F
:1016E0002A95E1F7292F30E0209530952071332796
:1016F0003595279535952795242B8095807F822BCE
:1017000008951F93CF93DF931F92CDB7DEB7162FA7
:10171000682F8AE049830E949009612F8BE00E9424
:1017200090094981642F89E00F90DF91CF911F913B
:101730000C9490092F923F924F925F926F927F92FA
:101740008F929F92AF92BF92CF92DF92EF92FF92D1
:101750000F931F93CF93DF9300D000D000D0CDB76D
:10176000DEB7DC016A30A9F45A962C915A97569646
:101770008D919C91579708E0209F800D911D112419
:1017800057969C938E93569755961C921E925497FB
:10179000D1C06D3009F4CEC05A96BC905A97599674
:1017A0002C90599758963C90589756962D913C916D
:1017B00057973C832B8354968D919C9155978038F5
:1017C0009105C4F05A962C915A97422F50E05496A6
:1017D0008D919C91559736E0239F800D911D11248A
:1017E00055969C938E9354975B962C915B97211101
:1017F0008EC0A0C00B811C81003411051CF79C0118
:1018000015E0B19E200D311D112412161306D4F6D9
:101810008B2C912C2B813C8148E0B49E200D311DF6
:1018200011241216130674F6E5E06E9F20011124B0
:1018300060E070E06530710539F0FB01E40DF51DE5
:10184000EB54FB4FA49001C0A12CEB80FC8008E07E
:10185000702EA0FC02C0622C01C0632C611009C074
:10186000231007C0A6947A94E80CF91C7110F1CFEC
:1018700045C09C01422F481B4B15A0F7A701E42F40
:10188000F42FFE19FB15B8F52038310588F54034E2
:10189000510570F5E695E695E695CE2ED12C8A0198
:1018A000077011271A830983F601F695FE2FEE279C
:1018B000F795E795E20FF31F8F010F541E4F1E831C
:1018C0000D83E1E0F0E0098002C0EE0FFF1F0A94F3
:1018D000E2F7FA83E983662029F0F801D080C98015
:1018E000CD2805C0CE2EC094F801D080CD20C08276
:1018F0004F5F5F4FC4CF2F5F3F4FBCCF6F5F7F4FB6
:10190000880D991D6630710509F094CF5BCF6AEFA1
:1019100064039001659F300D112420583F4F281714
:10192000390744F4CD01ED91FC910190F081E02D57
:101930006AE0099581E090E026960FB6F894DEBF44
:101940000FBECDBFDF91CF911F910F91FF90EF9010
:10195000DF90CF90BF90AF909F908F907F906F90CF
:101960005F904F903F902F90089583B7817F83BF02
:1019700083B7816083BF889583B78E7F83BF0895C7
:10198000E0919B01F0919C01908180919A01892BBB
:101990008083E0919801F091990190818091970165
:1019A000809589238083E0919B01F0919C01908137
:1019B00080919A018095892380830895E091980110
:1019C000F0919901908180919701892B8083E0911A
:1019D0009B01F0919C01908180919A0180958923CF
:1019E000808308958EBD00000DB407FEFDCF8EB537
:1019F00008950F931F93CF93DF931F92CDB7DEB758
:101A0000182F062F61E089E049830E94900968EC55
:101A100070E080E090E00E94540A60E0802F0E9415
:101A2000900982E090E00E94FA1E4981481729F04F
:101A3000642F82E090E00E94021F64EF71E080E07A
:101A400090E00E94540A61E0802F0E9490090E9459
:101A5000640B81238117D9F30F90DF91CF911F91F0
:101A60000F91089580911D0686FD06C00E94640BAB
:101A7000982F907486FD0AC080911D0686FD0AC0CD
:101A80000E94640B982F907285FF04C080911D0600
:101A9000806417C080911D0687FD06C00E94640BFC
:101AA000982F9078903851F080911D0687FD0CC0DA
:101AB0000E94640B982F907184FF06C080911D06D0
:101AC000806880931D0655C080911D0686FF08C062
:101AD0000E94640B807621F480911D068F7B19C0D3
:101AE00080911D0687FF04C00E94640B807971F00D
:101AF00080911E0680FD10C00E94640B982F987084
:101B000083FF0AC080911E0681602FC080911D0650
:101B10008F7780931D06ECCF80911E0681FD06C055
:101B20000E94640B982F947082FD0EC080911E0657
:101B300080FF0EC00E94640B982F987083FD08C030
:101B400080911E068E7F11C080911E0682600DC09E
:101B500080911E0681FF0CC00E94640B982F947028
:101B600082FD06C080911E068D7F80931E0601C0F7
:101B700090E0892F0895883018F481E0683008F0EB
:101B800080E00895FC012081FB013081FC0130835D
:101B9000FB0120830895FC01E40FF11D208130E05A
:101BA000062E02C0359527950A94E2F720FF0CC057
:101BB000808590E002C0959587956A95E2F780FF51
:101BC00006C082E090E0089580E090E0089581E012
:101BD00090E00895CF92DF92EF92FF920F93CF9310
:101BE000DF9300E420E445EB52E060E070E080E049
:101BF00090E00E947B1397E0C92ED12CD0E087E0C3
:101C0000E82EF12CC0E04C2F6D2F89E296E00E9467
:101C1000CB0D8130910529F408E028E04DEA52E02F
:101C200006C0029741F408E028E045EA52E0B70117
:101C3000C6010E947B13CF5F27E0E20EF11CC83083
:101C400011F7DF5F87E0C80ED11CD830C1F6809154
:101C5000A1018F3028F180912806982F9C71943033
:101C6000F9F4982F917086958170981319C080911E
:101C70001D06682F6695669566956770877097E074
:101C8000699FB0011124695F7F4F27E0829FC001E7
:101C9000112408E028E04DE952E007960E947B13EA
:101CA00008E028E045EA52E068E070E087E590E06F
:101CB0000E947B13C0E6D0E0D0931606C0931506B1
:101CC00088E090E0909318068093170640911F06D5
:101CD0004F7350E060E070E02AE081E096E00E94FF
:101CE000450928E04DEA52E060E170E087E590E0C8
:101CF0000E947B13D0931606C093150680E190E0F6
:101D0000909318068093170640911E0646954695B7
:101D100050E060E070E02AE081E096E00E94450932
:101D2000C6E4D0E0D0931606C093150680E290E09A
:101D3000909318068093170660E871E081E096E0C2
:101D40000E948E09D0931606C093150688E290E093
:101D50009093180680931706409120065091210613
:101D600060912206709123062AE081E096E00E94AD
:101D70004509D0931606C093150680E390E0909332
:101D800018068093170664E871E081E096E00E94EF
:101D90008E09D0931606C093150688E390E09093C1
:101DA00018068093170640912406509125066091ED
:101DB0002606709127062AE081E096E0DF91CF9118
:101DC0000F91FF90EF90DF90CF900C9445092F92E8
:101DD0003F924F925F926F927F928F929F92AF92BB
:101DE000BF92CF92DF92EF92FF920F931F93CF9308
:101DF000DF93CDB7DEB729970FB6F894DEBF0FBEDD
:101E0000CDBF7C016B01342E222E0C83422F632D1B
:101E10000E94CB0D892B09F052C021E02B8332E0C8
:101E2000C316D10409F01B8281E0C816D10421F445
:101E300092E0A92EB12C03C02B81A22EB12C1A82C4
:101E40001FEF232D30E03F832E83422C512C88241A
:101E50008394912C66246A94212F220D2D83611086
:101E600002C0112319F1762C730C2D811982072DD4
:101E70002987622F872D28870E94BB0D28858823FC
:101E8000A9F0422F672DC7010E94CB0D2885892B11
:101E900069F0398131111EC0422F672DC701288793
:101EA0000E94CB0D28858C159D0559F4639482E022
:101EB0006812D5CF1F5F123069F68A815FC080E05B
:101EC0005DC08A159B0519F0760C210FD0CF31E04B
:101ED0003983FACF39813130B9F7422F672DC701E5
:101EE00028870E94CB0D28858C159D0569F73A81BE
:101EF0003F5F3A832C812223C9F2802F002E000CF1
:101F0000990B2E813F818217930781F1061939853C
:101F1000311B3987E32FF0E0C114D10469F4EE0DD1
:101F2000FF1DC401002E01C0880F0A94EAF78095B6
:101F3000908189238083E1CFC401002E01C0880FE6
:101F40000A94EAF7EE0DFF1D3081382B3083A1E0B3
:101F5000CA16D10421F480959085892305C02B8170
:101F6000222359F29085892B8087C7CF3985832F0B
:101F7000330F990B8415950549F698CF29960FB61E
:101F8000F894DEBF0FBECDBFDF91CF911F910F91AF
:101F9000FF90EF90DF90CF90BF90AF909F908F9089
:101FA0007F906F905F904F903F902F900895CF92C9
:101FB000DF92EF92FF920F931F93CF93DF936B010A
:101FC0007C01CB010E94FA1EC82FC60101960E9417
:101FD000FA1ED82FC60102960E94FA1E082FC601CB
:101FE00003960E94FA1E4D2F50E060E070E0762FBD
:101FF000652F542F442710E020E030E0980111278E
:102000000027400F511F621F731F4C0F511D611D90
:10201000711D90E0A0E0B0E0B82FAA27992788278B
:102020008A019B01080F191F2A1F3B1FC901B80114
:10203000DF91CF911F910F91FF90EF90DF90CF90A4
:102040000895CF92DF92EF92FF92CF93DF93EC014E
:102050006A017B01642F0E94021F99278F2D7E2D1C
:102060006D2DCE0101960E94021FB7018827992786
:10207000CE0102960E94021F6F2D7727882799278D
:10208000CE010396DF91CF91FF90EF90DF90CF903C
:102090000C94021FCF92DF92EF92FF92CF93DF93C7
:1020A0006C01990FEE08FF08F7FE1CC0E091B10526
:1020B000F091B2050190F081E02D6DE281EB95E0A9
:1020C0000995EC0144275527BA014C195D096E09A1
:1020D0007F092AE081EB95E00E9445097C01EC0E26
:1020E000FD1E08C02AE0B701A60181EB95E00E9421
:1020F00045097C016FE571E081EB95E00E943009B4
:102100008E0D9F1DDF91CF91FF90EF90DF90CF90CC
:102110000895EF92FF920F93CF93DF937C01D0E06D
:10212000C0E000E02C2F4D2FB70189E296E00E941D
:10213000E70E811108C0CF5FC83099F7DF5FD83054
:1021400079F780E001C081E0DF91CF910F91FF909E
:10215000EF900895E9E2F6E08385877F93819861A7
:1021600093838061838784859481986194838F7E33
:1021700088608487CF010895CF93DF93CDE1D6E0C7
:102180004B815C816D817E818CEB92E00E942110FD
:102190004F81588569857A8584EC92E0DF91CF91F3
:1021A0000C9421102F923F924F925F926F927F92E8
:1021B0008F929F92AF92BF92CF92DF92EF92FF9257
:1021C0000F931F93CF93DF93CDB7DEB76A970FB608
:1021D000F894DEBF0FBECDBF4C01462E542E3F8B70
:1021E0002E8B80E1E9E2F6E0DE01119601900D927E
:1021F0008A95E1F78091280681FF03C062E070E0D4
:1022000002C061E070E001E0252D442DCE01019671
:102210000E94E70E882309F4DFC18091280681FF20
:1022200004C052E0E52EF12C03C0EE24E394F12C1F
:1022300000E010E0C12CD12CF801EB58F94F60817F
:10224000462F46954695469547706770CE01019694
:102250000E94CB0D8E159F0519F425E0C20ED11CEE
:102260000F5F1F4F0430110539F7860120E030E081
:10227000442D50E0A52DB0E0F901E75CF94F8081D5
:10228000682F677070E06417750761F4869586950E
:102290008695877090E08A179B0721F486010A5083
:1022A000110905C02F5F3F4F2430310529F720E089
:1022B00030E0652D70E0F901EF58F94F8081E82F8B
:1022C000E770F0E0E417F50759F486958695869552
:1022D000877090E08617970719F40C591F4F05C0B7
:1022E0002F5F3F4F2430310531F7442039F087E02C
:1022F000481621F0552011F05812E6C091E080E018
:10230000E2E0EE16F10409F090E0F1E0EF16F104DE
:1023100021F432E0632E712C02C0692E782E21E068
:10232000E216F10419F0C92ED82E03C022E0C22E05
:10233000D12C212C1B8A1C8A1D8A1A8A198A312CBD
:10234000A12CB12C511010C040E06B2DCE01019694
:102350000E94CB0D8E159F0511F4A3941BC08C1504
:102360009D05C1F4339416C087E0581213C047E0AE
:102370006B2DCE0101960E94CB0D8E159F0521F489
:1023800029892F5F298B06C08615970519F42A899C
:102390002F5F2A8B411014C04B2D60E0CE010196B7
:1023A0000E94CB0D8E159F0521F42D892F5F2D8B5B
:1023B0001BC08C159D05C1F42C892F5F2C8B14C07C
:1023C00087E0481211C04B2D67E0CE0101960E94B4
:1023D000CB0D8E159F0521F42B892F5F2B8B04C00D
:1023E0008C159D0509F42394B39488E0B812AACF04
:1023F000E1E0AE1204C0311002C0045F1F4F298912
:10240000213029F42A89211102C0045F1F4F2D8930
:10241000213029F42C89211102C0045F1F4F2B8920
:10242000213021F4211002C0045F1F4FF1E0EF16AC
:10243000F10409F0CDC092E0C92ED12C442009F45A
:1024400095C06624639487E0481609F48FC0552030
:1024500009F48EC077247394E7E05E1609F488C00F
:10246000342D552D262C240C372C350C20E0360D20
:10247000570D432D622DCE0101962A8F398F588F2B
:102480000E94CB0D2A8D398D588D8C159D0509F034
:1024900071C02160242C2618352C3718432D622D4D
:1024A000CE0101962A8F0E94CB0D2A8D8C159D0599
:1024B00009F077C02061822F8174813409F485C0CE
:1024C0002471243109F481C0EE89FF8980819181D2
:1024D000442D50E060E070E0C52CD12CE12CF12CB3
:1024E0002AE0801791073CF581EB95E00E944509B1
:1024F00068E871E081EB95E00E948E092AE0B7015F
:10250000A60181EB95E00E9445096BE871E081EB43
:1025100095E00E948E09C8010E944A1080E1FE01E8
:102520003196D40101900D928A95E1F7EE89FF89E9
:102530001183008351C081EB95E00E94450968E852
:1025400071E081EB95E00E948E092AE0B701A601B7
:1025500081EB95E00E9445096FE871E081EB95E021
:102560000E948E09C8010E944A1036C0612C6FCFAC
:10257000712C76CF8E159F0521F0892B19F42460DC
:1025800089CF22E0652F832F2A8F398F588F0E94A1
:10259000BB0D260C370C2A8D398D588D811167CFD4
:1025A00079CF8E159F0511F4206204C0892B11F498
:1025B000206481CF632D822D2A8F0E94BB0D2618A7
:1025C00037182A8D81116ACF76CF0C5011097CCF34
:1025D000CC24C394D12C32CF6A960FB6F894DEBFC8
:1025E0000FBECDBFDF91CF911F910F91FF90EF9064
:1025F000DF90CF90BF90AF909F908F907F906F9023
:102600005F904F903F902F9008950F931F93CF931B
:10261000DF9300E0D0E0C0E010E0412F602F89E2BE
:1026200096E00E94CB0D8130910511F4DF5F03C06D
:10263000029709F4CF5F1F5F183079F70F5F0830FA
:1026400059F7DD0FDD0F80911E068370D82BD093D4
:102650001E06CF7380911F06807CC82BC0931F0677
:102660008091280681FD03C082E090E002C081E0F5
:1026700090E00E94891090912806882359F091FBE0
:10268000222720F981E0822780FB91F99093280688
:1026900080E00BC091FF03C082E090E002C081E0C7
:1026A00090E00E94891091E08927DF91CF911F91DE
:1026B0000F9108958091B1018EBDE2EBF1E081911F
:1026C0000DB407FEFDCF8EBD85E0E13BF807B9F7FD
:1026D0000DB407FEFDCF089520E081EB91E0B22F0D
:1026E000B111BFEFFC010024B193B193B193B19349
:1026F0000394D1F708952F923F924F925F926F9279
:102700007F928F929F92AF92BF92CF92DF92EF9281
:10271000FF920F931F93CF93DF93CDB7DEB7289728
:102720000FB6F894DEBF0FBECDBF5A01822E912C9A
:102730009C01280D391D37FDC4C0803891050CF06F
:10274000C0C09B01200F311D37FDBBC06034710537
:102750000CF0B7C0AB0177FF04C044275527461BD8
:10276000570B477055279B0177FF02C0295F3F4FEA
:10277000E3E035952795EA95E1F777FF08C021500A
:10278000310968E070E0DB01A41BB50BAD01602FDF
:1027900066956695669570E0077011F06F5F7F4FE4
:1027A000DB01A20FB31FBA83A98339017694762C7B
:1027B000662477946794680E791EE12CF12C00E072
:1027C00010E02301B0E84B0E511C68E070E0DB0123
:1027D000A41BB50BBC83AB8369817A8126173707AD
:1027E00009F46FC02830310509F46BC02F3FBFEFEB
:1027F0003B070CF45BC0B201600F711FDB01AF54EB
:10280000BE4FBE83AD83D801A60DB71DAF54BE4FDA
:102810006C0160E070E0681579050CF047C0E0E8F5
:10282000CE16D10409F442C0D7FC34C02F3FFFEFCD
:102830003F0709F442C0FB01EE0DFF1DEA0DFB1D31
:10284000E491042E01C0EE0F0A94EAF73C90E329CC
:10285000EC9341155105F1F027303105D9F0FB011A
:10286000EE0DFF1DEA0DFB1DE4912E2E312CF10122
:102870000B8002C0F595E7950A94E2F7F887EF839D
:10288000ED81FE813080EF81F885E3291F01ED8124
:10289000FE8120826F5F7F4FED81FE813196FE8346
:1028A000ED83FFEFCF1ADF0A1196B5CF2F5F3F4FB1
:1028B00000581F4FE80CF91C8FCF4115510579F6D0
:1028C000E9CF28960FB6F894DEBF0FBECDBFDF91DB
:1028D000CF911F910F91FF90EF90DF90CF90BF901D
:1028E000AF909F908F907F906F905F904F903F90B0
:1028F0002F900895FC018091B001811103C08FEFEA
:102900009FEF08959FB7F89482E08093E9002091AB
:10291000F20030E01216130614F421E030E0211525
:10292000310559F0289884E68093AF018091F10039
:1029300080838091F200882319F09FBFC901089518
:102940008BE68093E800F9CF80917D0681110DC060
:1029500082E08093790684E080937A0610927C0668
:1029600010927B0681E080937D0689E796E00895CA
:10297000CF93DF93CDB7DEB765970FB6F894DEBF80
:102980000FBECDBF789484B5826084BD84B581606C
:1029900084BD85B5826085BD85B5816085BD80912A
:1029A0006E00816080936E001092810080918100A2
:1029B000826080938100809181008160809381009A
:1029C000809180008160809380008091910082607E
:1029D000809391008091910081608093910080911B
:1029E00090008160809390008091C100846080930A
:1029F000C1008091C10082608093C1008091C100BC
:102A000081608093C1008091C30081608093C30086
:102A10008091C00082608093C0008091C20081607C
:102A20008093C20080917A00846080937A008091C4
:102A30007A00826080937A0080917A00816080932E
:102A40007A0080917A00806880937A001092B001B9
:102A500010929601109295018091D7008160809329
:102A6000D70080EA8093D80089B5806189BD89B597
:102A7000826089BD09B400FEFDCF61E070E080E0B6
:102A800090E00E94540A8091D8008F7C80618093EE
:102A9000D8008091E000807F8093E0008091E10089
:102AA0008E7E8093E1008DE08093E200559A209A1B
:102AB000EEEFFFE7859194918B3F9C4D19F481E0F7
:102AC000809394011FB7F8948091A301811127C0CE
:102AD000E3EDF1E08491E6EAF1E09491E82FF0E093
:102AE000EE0FFF1FE658FE4FA591B491EC91E9233C
:102AF00021F461E081E10E94900961E081E10E949E
:102B0000F3098CB580618CBD8CB580648CBD61E0AF
:102B10008FE00E94F30961E080E10E94F309809157
:102B2000A3018F5F8093A3011FBF01EE11E0F801A5
:102B300084910E5F1F4F31966491882319F00E9493
:102B4000F309F5CF61E086E00E94900961E070E052
:102B500080E090E00E94540A60E086E00E949009C4
:102B60006AE070E080E090E00E94540A61E086E054
:102B70000E949009EEECF1E0E491F0E0EE0FFF1F0F
:102B8000EC54FE4F8591949190939C0180939B010E
:102B9000E1EAF1E0E491E0939A01E6ECF1E0E491FE
:102BA000F0E0EE0FFF1FEC54FE4F8591949190934F
:102BB000990180939801E9E9F1E0E491E0939701AC
:102BC0008CB58C7F8CBD8DB581608DBD0E94C00C95
:102BD00008E811E08DE0F82EF00EF80184910E94D3
:102BE000F20C0F5F1F4FF012F8CF0E94DE0C8091A5
:102BF00064008160809364008091640082608093AF
:102C00006400809164008068809364008091640017
:102C1000806480936400809165008160809365008A
:102C200000E014E080E00E94F20C01501109D1F79D
:102C30000E94640B87FF3CC00E94C00C85EA0E9482
:102C4000F20C0E94DE0C40E060E080E00E94810B0C
:102C50000E94640B84FD03C00E94B50CF9CF41E0D3
:102C600061E081E00E94810B0E94C00C84EA0E9416
:102C7000F20C0E94DE0C1CC060E089E00E9490090A
:102C80000E94640B8478843821F44FEF6BE00E943B
:102C9000F90C0E94640B8471843121F440E06AE0F5
:102CA0000E94F90C68EC70E080E090E00E94540A09
:102CB0000E94640B82FDE0CF61E089E00E949009F0
:102CC00060E08AE00E949009EEEEEE2EFF24FA9476
:102CD0001E2D1C3F19F441E060E004C0183129F4B6
:102CE00040E061E081E00E94810B0E946C1300E1F2
:102CF00028E54AEC50E0B70184E190E00E947B13A4
:102D00000E945A136BE170E080E090E00E94540A48
:102D1000103F31F46AEF70E080E090E00E94540AC6
:102D2000FFEFEF1AFF0A29E1E216F10489F66EEED1
:102D300072E080E090E00E94540A61E089E00E9425
:102D4000900982E090E00E94FA1E882359F061E029
:102D500085E00E94F30961E08DE00E94F30981E0C3
:102D60008093A201809164008E7F8093640087EC41
:102D700080937C0080E280937B0062E070E080E0E2
:102D800090E00E94540A80917A00806480937A00D7
:102D900080917A0086FDFCCF009178001091790037
:102DA000009510958EE580937C0062E070E080E0F5
:102DB00090E00E94540A80917A00806480937A00A7
:102DC00080917A0086FDFCCFE0907800F090790049
:102DD0000E942F0A9B01AC0120953095409550959B
:102DE000E094F094E09ED001E19EB00DF09EB00D15
:102DF00011240E942F1F6B017C010E942F0A6C0D71
:102E00007D1D8E1D9F1D611571058105910511F0B8
:102E10000E94F11E8091640081608093640081E2D1
:102E200080930A0608EF1FEF76E1E72EF12C0E944F
:102E30006C13F0921606E092150610931806009394
:102E4000170663E371E081E096E00E948E0964E179
:102E500070E080E090E00E94540A0E945A130E5FD6
:102E60001F4F0C31110519F768EE73E080E090E018
:102E70000E94540A0E94AA1048E1B42E5CE0C52EBC
:102E8000D12C68E1E62EF12C0E948E1E8C010E944E
:102E90008E1EB801637077276F58794F837099271A
:102EA0008F58994F0E94C20D0E948E1E8C010E9465
:102EB0008E1EFC01C801B6010E94231E9C012B59E5
:102EC000394FCF01B6010E94231EB9018B59994F8A
:102ED0000E94C20D0E948E1E8C010E948E1EFC015B
:102EE000C801B7010E94231E9C01235B394FCF010B
:102EF000B7010E94231EB901835B994F0E94C20D46
:102F00000E948E1E8C010E948E1EB801677077276A
:102F10006B5B794F877099278B5B994F0E94C20D2D
:102F20000E948E1E8C010E948E1EB801677077274A
:102F3000635C794F87709927835C994F0E94C20D1B
:102F40000E948E1E8C010E948E1E03701127B801F4
:102F5000675C794F83709927875C994F0E94C20DF7
:102F6000BA94B11091CF6CEB72E080E090E00E94D7
:102F7000D70F6B017C01609320067093210680932C
:102F800022069093230664EC72E080E090E00E94B9
:102F9000D70F60932406709325068093260690939E
:102FA0002706CF20CE20CD20C09429F06F3F7F4F41
:102FB0008F4F9F4F91F4109220061092210610928D
:102FC00022061092230610922406109225061092D3
:102FD0002606109227060E94BC1089E296E0F8E0CF
:102FE000F80FFB8B9E012F5F3F4F790138E03E0DBC
:102FF0003C8B2FB7F89480919D0190919E01A091F8
:103000009F01B091A0012FBF20911306222391F0C0
:1030100020910B06682F621B60931406209108060E
:10302000309109062F5F3F4F309309062093080621
:103030001092130640910F065091100660911106F0
:103040007091120684179507A607B70738F4481B36
:10305000423008F4B3C30E94B50CB0C320910A06F5
:10306000AC01BD01420F511D611D711D40930F0642
:1030700050931006609311067093120680930B060E
:1030800090930C06A0930D06B0930E0681E08093FA
:1030900013068091A1018F5F8E3118F48093A101F6
:1030A00002C01092A1010E946C1310921806109297
:1030B0001706109216061092150620912806822FE8
:1030C00086958695877090E08230910509F4B8C2A4
:1030D00034F4009741F0019709F47CC06DC3069762
:1030E0000CF4D7C269C30E94320D803149F0803898
:1030F00039F0883049F5A1E3B6E0E9E2F6E007C02F
:1031000080912806982F909590FB80F91BC0119212
:103110001D927B897E13FBCF0E94AA1080911D0611
:1031200080788B618F7780931D0688E080931E06E0
:1031300080911F06807C826080931F068091280604
:10314000817E8660809328061092160610921506DE
:10315000109218061092170662E471E081E096E082
:103160000E948E0901E310E01093160600931506E5
:1031700088E190E090931806809317066BE471E065
:1031800081E096E00E948E091093160600931506C2
:1031900080E290E0909318068093170661E571E055
:1031A00081E096E00E948E098091280680FF03C08E
:1031B00088E190E002C080E290E02AE230E03093C3
:1031C000160620931506909318068093170667E558
:1031D00071E0EEC221FB882780F92170821377C04D
:1031E0000E94320D8031D9F138F4843009F468C07E
:1031F000883009F44BC021C2803431F08038E9F0C6
:10320000803209F01AC20AC090911D06892F87707A
:10321000987F873061F18F5F877034C020911D06E1
:10322000822F877021F4276020931D0606C2895FD4
:10323000982F9770822F887F25C080911D06982F28
:10324000987311F488631FC0982F9695969596955C
:10325000995F9770990F990F990F877C13C0809190
:103260001D06282F2873982F977C283319F49093E4
:103270001D06E3C18695869586958F5F8770880FBA
:10328000880F880F892B80931D06D7C140911D069A
:10329000242F26952695269527704770809128061D
:1032A00081FF03C062E070E002C061E070E001E015
:1032B00089E296E00E94E70E882309F4BEC186C227
:1032C00080912806837E886080932806B6C169E5D0
:1032D00071E081EB95E00E9430096FE571E081EBD0
:1032E00095E00E943009DE011996F70111921D92B6
:1032F0002C892E13FBCF80E090E89A8B898B00E01D
:1033000010E0F801EF58F94F6081462F4695469539
:103310004695477067709E012F5E3F4FC7010E9420
:10332000D2100F5F1F4F0430110559F700E010E075
:10333000F801EB59F94F6081462F46954695469521
:10334000477067709E012F5E3F4FC7010E94D210E9
:103350000F5F1F4F0C30110559F700E010E0F80126
:10336000EB5BF94F6081462F469546954695477031
:1033700067709E012F5E3F4FC7010E94D2100F5F02
:103380001F4F0830110559F7C12CD12C8091280608
:1033900081FD07C0AA24A394B12C32E0832E912C86
:1033A00006C082E0A82EB12C88248394912CB6010B
:1033B000635B794F2B01FB014081242F26952695D5
:1033C00026952770477000E0B50189E296E00E94DB
:1033D000E70E882309F471C0F2010081F02FF77025
:1033E0005F2E06950695069507703F2E702F87E095
:1033F0008F0F877022242394863008F0212C622CB2
:10340000650C87E0800F877044244394863008F071
:10341000412C742C700E10E0320C740D472D662D6B
:1034200089E296E07D8B0E94CB0D7D8988159905F8
:1034300011F4116009C08A159B0511F4126004C0D3
:10344000892B11F414600AC0672F832D7D8B0E9495
:10345000BB0D620C740C7D898111DECF752C721846
:10346000302E3418432D672D89E296E00E94CB0D53
:103470008815990511F4106109C08A159B0511F48E
:10348000106204C0892B11F4106408C0632D872DCD
:103490000E94BB0D721834188111E4CF812F817402
:1034A000813419F01471143141F49E012F5E3F4FA5
:1034B000402F652DC7010E94D2102FEFC21AD20AE9
:1034C00038E1C316D10409F061CF00E010E0F80143
:1034D000E35CF94F6081462F4695469546954770C7
:1034E00067709E012F5E3F4FC7010E94D2100F5F91
:1034F0001F4F0830110559F700E010E0F801E75CB4
:10350000F94F6081462F46954695469547706770FE
:103510009E012F5E3F4FC7010E94D2100F5F1F4FC9
:103520000430110559F700E010E09E012F5E3F4F77
:10353000412F602FC7010E94D2101F5F1830A9F7DA
:103540000F5F083089F789899A898115904841F081
:1035500080E1F701A9E2B6E001900D928A95E1F7CA
:103560000E940513882309F468C0809128064091C1
:103570001F0620911E068090240690902506A0909C
:103580002606B090270680FF3AC04F7350E026957C
:10359000269530E0241735072CF5837E8C608093C8
:1035A00028067FEF871A970AA70AB70A809224068F
:1035B00090922506A0922606B092270680912006BA
:1035C00090912106A0912206B09123060196A11D9B
:1035D000B11D8093200690932106A0932206B093FC
:1035E000230629C042175307ACF4837E8061809381
:1035F00028068FEF881A980AA80AB80A14C02695D8
:10360000269530E04F7350E04217530734F22417E9
:1036100035075CF3837E8461809328069FEF891AC7
:10362000990AA90AB90A8092240690922506A092C6
:103630002606B09227060E94BC100E94EA0DBCC06C
:103640000E94320D803161F028F4843071F08830AE
:1036500089F406C0803421F0803811F0803251F4B2
:1036600080912806837E846003C080912806837E33
:103670008093280683E190E09093160680931506C8
:103680008CE190E0909318068093170662E671E053
:103690008FC00E94320D843011F1883029F5A1E3EA
:1036A000B6E0E9E2F6E011921D922B892E13FBCFD2
:1036B0000E94AA1080911D0680788B618F7780937D
:1036C0001D0688E080931E0680911F06807C826024
:1036D00080931F0680912806817E866003C08091BA
:1036E0002806837E809328060E94EA0D42E350E07C
:1036F0008AE190E0282F269526952695FA0130E854
:10370000239FE00DF11D1124EF54FE4F9C01277003
:10371000332761E070E002C0660F771F2A95E2F759
:103720009B012095308123232083019686329105C9
:1037300009F74F5F5F4F4E345105D1F6809128064F
:1037400086958695877090E084309105A1F085304C
:10375000910501F1039781F587E390E090931606B8
:10376000809315068CE190E09093180680931706DD
:1037700062E771E01DC084E390E0909316068093A9
:1037800015068CE190E0909318068093170666E783
:1037900071E00EC084E390E09093160680931506C6
:1037A0008CE190E090931806809317066BE771E028
:1037B00081E096E00E948E090E945A1380E090E01A
:1037C000892B09F416CC0E94000013CC0E9405132B
:1037D000882309F432CF8091280640911F0620915A
:1037E0001E068090240690902506A0902606B09094
:1037F000270680FF18C04F7350E02695269530E0CD
:103800002417350754F4837E8C60809328068FEF4D
:10381000881A980AA80AB80AC9CE4217530774F43E
:10382000837E8061F9CE2695269530E04F7350E077
:103830004217530744F32417350794F3837E8461BA
:1038400080932806EFEF8E1A9E0AAE0ABE0AEBCED0
:103850001092B4051092B30588EE93E0A0E0B0E0BA
:103860008093B5059093B605A093B705B093B805BE
:103870008FE191E09093B2058093B1058FEF9FEFB8
:103880009093BE058093BD05A1E3B6E0E9E2F6E0C2
:1038900088E08E0F11921D928E13FCCF80911D0631
:1038A00080788B618F7780931D0688E080931E0659
:1038B00080911F06807C826080931F0610922006F4
:1038C00010922106109222061092230610922406CE
:1038D000109225061092260610922706809128063F
:1038E000807E83608093280610920406109203065F
:1038F000109206061092070680E180930A06109245
:1039000009061092080610920F06109210061092E7
:10391000110610921206109213068FE291E0909316
:103920000206809301061092160610921506109258
:1039300018061092170681E08093190610921A0655
:1039400080931B0610921C0680917506807C8B610B
:103950008093750680917606807C8C6180937606D4
:1039600080917706807C83628093770680917806C9
:10397000807C84628093780680917106807C80933D
:103980007106809172068760877C809372068091B1
:1039900073068F638093730680917406887F8863B3
:1039A0008093740680916506807C826180936506B1
:1039B00080916606807C83618093660680916706AD
:1039C000807C84618093670680916806807C856135
:1039D0008093680680916906807C8D61809369067A
:1039E00080916A06807C856280936A0680916B066E
:1039F000807C8D6280936B0680916C06807C8C62EB
:103A000080936C0680916D06807C8B6280936D063E
:103A100080916E06807C8A6280936E0680916F062C
:103A2000807C826280936F0680917006807C8A61C0
:103A30008093700680914D06807C816080934D0656
:103A400080914E06807C826080934E0680914F0666
:103A5000807C836080934F0680915006807C8460D8
:103A60008093500680915106807C8560809351063A
:103A700080915206807C8660809352068091530626
:103A8000807C8F608093530680915406807C876190
:103A90008093540680915506807C8F6180935506F3
:103AA00080915606807C87628093560680915706E7
:103AB000807C8F628093570680915806807C876354
:103AC0008093580680915906887F8E6380935906AB
:103AD00080915A06887F8D6380935A0680915B0699
:103AE000887F8C6380935B0680915C06887F8B6304
:103AF00080935C0680915D06887F8A6380935D0673
:103B000080915E06887F896380935E0680915F0660
:103B1000807C806380935F0680916006807C8862F1
:103B20008093600680916106807C8062809361064C
:103B300080916206807C8861809362068091630632
:103B4000807C80618093630680916406807C8860BD
:103B50008093640680914506807C8B608093450647
:103B600080914606807C8C60809346068091470653
:103B7000807C8E618093470680914806807C8662B7
:103B80008093480680914906807C8463809349062F
:103B900080914A06807C836380934A0680914B061D
:103BA000807C816280934B0680914C06807C896189
:103BB00080934C0680913D06807C8A6080933D0610
:103BC00080913E06807C8D6080933E0680913F060A
:103BD000807C866180933F0680914006807C8E6267
:103BE0008093400680914106807C856380934106E6
:103BF00080914206807C82638093420680914306D6
:103C0000807C89628093430680914406807C816138
:103C10008093440680913906807C896080933906C0
:103C200080913A06807C8E6080933A0680913B06B4
:103C3000807C866380933B0680913C06807C816318
:103C400080933C060895AA1BBB1B51E107C0AA1F25
:103C5000BB1FA617B70710F0A61BB70B881F991F2D
:103C60005A95A9F780959095BC01CD010895EE0F66
:103C7000FF1F0590F491E02D099481E090E0F89405
:103C80000C94731F8F929F92AF92BF92CF92DF924C
:103C9000EF92FF92CF93DF93EC01688179818A8163
:103CA0009B81611571058105910521F464E279ED2F
:103CB0008BE597E02DE133EF41E050E00E94101FCB
:103CC00049015A019B01AC01A7EAB1E40E942F1FF0
:103CD0006B017C01ACEEB4EFA50194010E943D1F85
:103CE000DC01CB018C0D9D1DAE1DBF1DB7FF03C0B8
:103CF0000197A109B04888839983AA83BB839F77E2
:103D0000DF91CF91FF90EF90DF90CF90BF90AF9079
:103D10009F908F9008950E94421E08958CE091E03C
:103D20000E94421E0895A0E0B0E080930C019093A1
:103D30000D01A0930E01B0930F0108958F929F92F1
:103D4000AF92BF92CF92DF92EF92FF92CF93DF9329
:103D5000EC01688179818A819B81611571058105FA
:103D6000910521F464E279ED8BE597E02DE133EFE5
:103D700041E050E00E94101F49015A019B01AC0133
:103D8000A7EAB1E40E942F1F6B017C01ACEEB4EFF7
:103D9000A50194010E943D1FDC01CB018C0D9D1DEE
:103DA000AE1DBF1DB7FF03C00197A109B0488883AE
:103DB0009983AA83BB83BC01CD019F77DF91CF910B
:103DC000FF90EF90DF90CF90BF90AF909F908F903B
:103DD00008950E949E1E089580E191E00E949E1E1B
:103DE00008956093100170931101809312019093D4
:103DF00013010895F999FECF92BD81BDF89A9927D4
:103E000080B50895262FF999FECF1FBA92BD81BDC6
:103E100020BD0FB6F894FA9AF99A0FBE019608954C
:103E2000052E97FB1EF400940E94271F57FD07D014
:103E30000E94421F07FC03D04EF40C94271F50959C
:103E40004095309521953F4F4F4F5F4F0895909586
:103E50008095709561957F4F8F4F9F4F08950E9479
:103E6000641FA59F900DB49F900DA49F800D911D80
:103E700011240895B7FF0C942F1F0E942F1F821B3F
:103E8000930B0895A1E21A2EAA1BBB1BFD010DC0C6
:103E9000AA1FBB1FEE1FFF1FA217B307E407F507FA
:103EA00020F0A21BB30BE40BF50B661F771F881FD6
:103EB000991F1A9469F760957095809590959B016C
:103EC000AC01BD01CF010895A29FB001B39FC00115
:103ED000A39F700D811D1124911DB29F700D811D36
:0A3EE0001124911D0895F894FFCFFE
:103EEA00FFFFFFFF00E100000000000001000000EA
:103EFA000100000000C1808100000000000000D025
:103F0A00058E0AF10563063F06E605000000009AE1
:103F1A000BA505506F636B6574204F7468656C6CF4
:103F2A006F00506C61792061733A00424C41434BF7
:103F3A00005748495445003E002D2D2D2D2D000DCA
:103F4A000A005052455353204220544F20455849A5
:103F5A00540057494E004C4F5345004452415700B4
:103F6A00574F4E0053554D002C2000203E20002074
:043F7A003C200000E7
:00000001FF
